:020000040800F2
:10000000E01C002069010008390B0008CD0A000837
:100010007501000877010008790100080000000060
:10002000000000000000000000000000211F000888
:100030007D010008000000003D0B0008791F00084A
:100040008301000883010008830100088301000880
:100050008301000883010008830100088D0A00085D
:1000600000000000830100088301000883010008EC
:100070008301000883010008830100088301000850
:100080008301000883010008830100088301000840
:10009000830100088301000883010008E10A0008C9
:1000A000010B00088301000883010008DD2000081F
:1000B00083010008000000000000000000000000B4
:1000C000D10A000800000000F10A0008190B00081E
:1000D000110B000800000000000000008301000870
:1000E0008301000800000000000000000000000084
:1000F0000000000000000000000000000000000000
:1001000083010008000000000000000083010008D7
:1001100000000000000000000000000000000000DF
:1001200000000000000000000000000000000000CF
:1001300000000000000000000000000000000000BF
:1001400000000000000000000000000000000000AF
:1001500083010008DFF80CD000F00AFC00480047DB
:10016000D98B0008E01C002006488047064800475D
:10017000FEE7FEE7FEE7FEE7FEE7FEE7FEE7FEE757
:10018000FEE7FEE7A11F00085501000840EA010351
:100190009B0703D009E008C9121F08C0042AFAD23D
:1001A00003E011F8013B00F8013B521EF9D2704701
:1001B000D2B201E000F8012B491EFBD270470022A9
:1001C000F6E710B513460A4604461946FFF7F0FF56
:1001D000204610BD421C10F8011B0029FBD1801ADB
:1001E000704730B504460020034600E05B1C934294
:1001F00003D2E05CCD5C401BF8D030BD2DE9FE4F52
:10020000804681EA0300C00F0C46009021F00041B7
:1002100023F00045B8EB0200A94105D24046214633
:1002200090461C460B46024623F00040104347D040
:10023000270DC7F30A00C3F30A510290401A019038
:1002400040286BDAC3F3130040F4801B00989246F9
:1002500020B10023D2EB030A63EB0B0B0198594644
:10026000C0F14002504600F05FFA06460D46504687
:100270005946019A00F077FA10EB0800614100241A
:1002800087EA115284EAE7731A4340D0009A62B3B6
:10029000019A012A4FEA075215DC001B61EB0201AB
:1002A0004FF0004202EA0752CDE90042001C41F53E
:1002B000801132462B4600F0AEFA03B0BDE8F08F55
:1002C00040462146F9E7001B61EB0201001C41F5A5
:1002D000801300185B412018A2F5001747EB0301BB
:1002E00040EAD570B6196D4111E06D084FEA360647
:1002F00045EAC0754FEA0752001B61EB0201001C82
:1003000041F5801149084FEA300000195141324649
:100310002B4603B0BDE8F04F00F06EBA0098012202
:1003200040000023D0EB020263EBE073009821460B
:100330004FEAE074B8EB000061EB0401E9E783F0F9
:1003400000435BE781F0004158E72DE9FE4F81EA69
:10035000030404F0004421F0004100944FF0000B2E
:1003600023F0004350EA01045ED052EA03045BD05C
:10037000C3F30A54C1F30A552C44A4F2F334019494
:10038000A0FB0254C1F3130141F48011C3F3130322
:1003900043F4801301FB024400FB034E840A970AD6
:1003A00044EA815447EA8357A4FB076802958D0A03
:1003B00005FB07854FEA932C04FB0C542705029D8F
:1003C0004FEA065847EA1637B5EB08056EEB070CFF
:1003D000870E920E47EA811742EA8312A7FB0201B9
:1003E000B6EB0B0164EB00042B0D43EA0C335E18F3
:1003F00044EB1C50DA465146E7FB0201C5F31304F7
:100400004FEA0B3343EA14534FEA0432019C43EAA8
:100410000603A4F10C040294009CCDE900B400F0A2
:10042000FAF903B0BDE8F08F00200146F9E72DE9A5
:10043000F04D81EA030404F0004B21F0004514461E
:100440004FF0000A23F0004150EA050220D054EAA0
:1004500001021DD0C5F30A570246C5F31303C1F3C9
:100460001300C1F30A5640F4801543F48013A7EB40
:100470000608101BD64608F2FD3873EB050002D3C0
:1004800008F1010801E092185B41B8F1000F03DAAE
:1004900000200146BDE8F08D00204FF48011064693
:1004A00084460EE0171B73EB050705D3121B63EBA5
:1004B000050306434CEA010C49084FEA3000921844
:1004C0005B4150EA0107EDD152EA030012D082EA03
:1004D000040083EA0501084305D0101BAB4106D296
:1004E0000122002306E000224FF0004302E06FF0FB
:1004F000010253101AEB06004CEB085110EB0A00F6
:1005000041EB0B01BDE8F04D00F076B930B5041EAB
:1005100071F1000404DB4FF00044404264EB010140
:10052000141E73F1000405DB1C464FF000435242D9
:1005300063EB0403801A994101D3012030BD0020F0
:1005400030BD30B5041E71F1000404DB4FF00044EF
:10055000404264EB0101141E73F1000405DB1C46EC
:100560004FF00043524263EB0403101A8B4101D356
:10057000012030BD002030BD0EB5C10F80EAE07013
:100580000844CA07002140F233438DE80E000A46B2
:100590000B4600F040F903B000BD0EB540F2334108
:1005A00002910021CDE900110A460B4600F033F913
:1005B00003B000BD0EB540F2334202920022CDE9F5
:1005C0000022134600F027F903B000BD70B5C1F357
:1005D0000A5201F000450024C1F3130140F2FF3339
:1005E00041F480119A4201DA002070BD40F2334399
:1005F0009A42A2F2334203DC524200F0A4F800E037
:1006000090402C43F1D0404270BDC1F30A5210B566
:10061000C1F3130140F2FF3341F480119A4201DA31
:10062000002010BD40F233439A42A2F2334203DC71
:10063000524200F088F810BD904010BD00F000421A
:1006400030F000400AD0C10D01F56071C0F3160012
:1006500042EA0151C2084007114370470020014699
:10066000704701F0004330B421F0004150EA01022C
:1006700006D00A0DA2F56072C1F31301002A02DC54
:1006800030BC00207047440F44EAC104C100E018A8
:1006900030BC00EBC25000F078B830B50B460146D4
:1006A00000202022012409E021FA02F59D4205D311
:1006B00003FA02F5491B04FA02F52844151EA2F1BB
:1006C0000102F1DC30BD2DE9F05F054600209246C5
:1006D0009B4688460646814640241BE02846414604
:1006E0004746224600F02FF853465A46C01A914119
:1006F00010D311461846224600F016F82D1A67EB63
:1007000001084F4622460120002100F00DF817EBAA
:1007100000094E41201EA4F10104DFDC48463146A9
:100720002A464346BDE8F09F202A04DB203A00FA1F
:1007300002F1002070479140C2F1200320FA03F338
:10074000194390407047202A04DB203A21FA02F036
:100750000021704721FA02F3D040C2F120029140FB
:10076000084319467047202A06DBCB17203A41FA86
:1007700002F043EAE07306E041FA02F3D040C2F12E
:10078000200291400843194670470029A8BF7047CE
:10079000401C490008BF20F00100704710B4B0FAB7
:1007A00080FC00FA0CF050EA010404BF10BC704752
:1007B00049B1CCF1200421FA04F411FA0CF118BF6C
:1007C000012121430843A3EB0C01CB1D4FEA00613B
:1007D0004FEA102042BF002010BC704700EBC3500E
:1007E00010440029A4BF10BC7047401C490008BF3A
:1007F00020F0010010BC704710B5141E73F1000406
:1008000008DA401C41F1000192185B411A4301D102
:1008100020F0010010BD2DE9F04D92469B4611B12C
:10082000B1FA81F202E0B0FA80F220329046FFF78E
:100830007BFF04460F4640EA0A0041EA0B0153469B
:100840005A46084313D0114653EA010019D0C8F1A3
:1008500040025046FFF777FF05460E465046594680
:100860004246FFF761FF084305D0012004E020461F
:100870003946BDE8F08D0020054346EAE0762C437A
:1008800037430A986305E40AA0EB08000022FD0A3A
:1008900044EA47540A3002D500200146E9E7010541
:1008A00010196941DDE9084500196941BDE8F04DBD
:1008B000A2E770B521F0004303430CD0C1F30A5501
:1008C0000024D5EB040564EB0403D617AD1AB3413D
:1008D00002DB0020014670BD201841EB025170BDC3
:1008E000C1F30A52C1F3130140F2FF3341F4801106
:1008F0009A4202DA00200146704740F233439A429E
:10090000A2F2334202DC5242FFF71DBFFFF70CBFD9
:1009100030B5041E71F1000404DB4FF00044404286
:1009200064EB0101141E73F1000405DB1C464FF05B
:100930000043524263EB04038B4208BF824230BD46
:1009400030B5041E71F1000404DB4FF00044404256
:1009500064EB0101141E73F1000405DB1C464FF02B
:100960000043524263EB0403994208BF904230BDFA
:10097000064C074D06E0E06840F0010394E80700EC
:1009800098471034AC42F6D3FFF7E8FBF83E010875
:10099000183F01082DE9F04D00231A461B1A8A4121
:1009A00003DB00200146BDE8F08DC1F30A52C1F31C
:1009B000130141F480154FF0000BD10702D100184C
:1009C0006D41521E0027044640F2FF11384601EBEC
:1009D000620A3E468046024600204FF48011FFF72F
:1009E000B2FEC2197141BB1846EB0100B4EB030C17
:1009F00075EB000C04D3E41A65EB000517460E46B0
:100A0000241908F101006D4180463428E3DDF9190D
:100A100046EB0600091BA84103D24FF0FF321346F4
:100A200001E0002213461BEB070046EB0A51BDE82C
:100A3000F04DFFF7E1BE70B58C1810F8015B15F0B2
:100A4000070301D110F8013B2A1106D110F8012B40
:100A500003E010F8016B01F8016B5B1EF9D12B0765
:100A600005D40023521E0DD401F8013BFAE710F81B
:100A7000013BCB1A921C03E013F8015B01F8015B08
:100A8000521EF9D5A142D8D3002070BD80B582B0E6
:100A90000020ADF806004FF4004005F0E1F990B1F8
:100AA000FFE741F27001C2F20001886801308860FE
:100AB00004F0F0FC04F04AFB04F03AFC4FF4004070
:100AC00005F0C4F9FFE702B080BD0000FFE7FEE7D4
:100AD00080B545F20040C4F2000008F0B5F980BDD1
:100AE00080B545F20040C4F2000008F02DFA80BD48
:100AF00080B545F60000C4F2000008F0A5F980BDFD
:100B000080B545F60000C4F2000008F01DFA80BD73
:100B100080B50CF04FFE80BD80B54CF20000C4F2F1
:100B200000000CF0F7FE80BD80B582B00190019806
:100B300005F0DEF902B080BD70470000704700008C
:100B400040F66420C2F200000088704780B584B08F
:100B50004FF4806001900198F83002A905F030F858
:100B60009DF80800C00720B1FFE701208DF80F00B5
:100B700003E000208DF80F00FFE79DF80F0004B0A0
:100B800080BD000080B584B08DF80F004FF4806008
:100B90000090009800F5887001900198883002A9B3
:100BA00005F00EF8029820F0006002909DF80F10FA
:100BB000029840EAC160029001988830029905F0DD
:100BC00017F8029820F0806002900198883002990E
:100BD00005F00EF89DF80F10029840EA816002902F
:100BE00001988830029905F003F804B080BD000038
:100BF00080B584B08DF80F004FF4806000900098AD
:100C000000F5887001900198743002A904F0D8FFB3
:100C1000029820F0007002909DF80F10029840EAB0
:100C20004160029001987430029904F0E1FF04B031
:100C300080BD000080B584B08DF80F004FF4806057
:100C40000090009800F588700190019802A904F0C6
:100C5000B7FF029820F0004002909DF80F10029814
:100C600040EAC17002900198029904F0C1FF04B0FB
:100C700080BD000080B584B08DF80F004FF4806017
:100C80000090009800F5887001900198883002A9C2
:100C900004F096FF029840F080700290019888302E
:100CA000029904F0A5FF04B080BD000080B584B0B7
:100CB0008DF80F004FF480600090009800F5887068
:100CC000019001983C3002A904F07AFF029820F0CC
:100CD000030002909DF80F100298084302909DF8BF
:100CE0000F10029840EA4100029001983C300299AE
:100CF00004F07EFF04B080BD80B586B08DF817008B
:100D00008DF816104FF4E06004900498143002A996
:100D100004F056FF9DF817109DF8080001F001013E
:100D200000F0EF0040EA01108DF808009DF8171060
:100D30009DF8080001F0010100F0DF0040EA4110D9
:100D40008DF808009DF817109DF8080001F00101CA
:100D500000F0BF0040EA81108DF8080004981430BC
:100D6000029904F045FF9DF81700012809D1FFE71B
:100D70009DF81700FFF706FF9DF81700FFF75AFFD1
:100D8000FFE79DF81600012811D1FFE7FFF7D8FE15
:100D900003900498183001A904F012FF0398ADF8ED
:100DA000060004981830019904F022FFFFE706B00E
:100DB00080BD000080B584B08DF80F008DF80E1056
:100DC0004FF4E06002900298443001A904F0F8FE6C
:100DD0009DF80E109DF8040001F0010100F0FD00E7
:100DE00040EA41008DF804009DF80F109DF80400C2
:100DF00001F0010100F0FE0008448DF804000298A3
:100E00004430019904F0F4FE04B080BD80B584B094
:100E10008DF80F004FF4E06002900298443001A971
:100E200004F0CEFE9DF8040000F0FB008DF80400F5
:100E30009DF80F109DF8040001F0010100F0F7008B
:100E400040EAC1008DF8040002984430019904F092
:100E5000CFFE04B080BD000080B582B04FF4E060EA
:100E6000019001984C30694604F0AAFE00986FF397
:100E70001F3002B080BD000080B586B08DF817002D
:100E80004FF4E06004900498143003A904F098FE35
:100E90009DF8170050B1FFE79DF81700022805D014
:100EA000FFE79DF81700032807D1FFE79DF80D0025
:100EB00000F0FD008DF80D0006E09DF80D0040F0FB
:100EC00002008DF80D00FFE704981430039904F038
:100ED0008FFE9DF81700012801DCFFE75EE0049813
:100EE000403002A904F06CFE0498043001A904F01B
:100EF00067FE9DF81700022815D1FFE79DF808004E
:100F000000F0FE008DF808009DF8080000F0FD00DC
:100F10008DF80800019840F001000190019820F040
:100F2000020001902FE09DF81700032815D1FFE77C
:100F30009DF8080000F0FE008DF808009DF80800FC
:100F400000F0FD008DF80800019820F001000190EC
:100F5000019840F00200019014E09DF8080040F074
:100F600001008DF808009DF8080040F002008DF89F
:100F70000800019820F001000190019820F0020083
:100F80000190FFE7FFE704984030029904F030FE3B
:100F900004980430019904F02BFEFFE706B080BDF1
:100FA00080B584B08DF80F004FF4E0600290029895
:100FB000403001A904F004FE9DF80F10BDF80600B2
:100FC0006FF3DF3040EAC130ADF8060002984030E0
:100FD000019904F00DFE04B080BD000080B582B020
:100FE0004FF4E060019001982430694604F0E8FD78
:100FF0009DF8020000F03F008DF8020001982430B7
:10100000009904F0F5FD02B080BD000080B584B009
:101010008DF80F004FF4E06002900298203001A993
:1010200004F0CEFD9DF80F10BDF8040001F00101A1
:1010300020F4804040EA8130ADF80400029820306E
:10104000019904F0D5FD04B080BD000080B586B0E4
:1010500005900491039205980830049904F0C8FDA6
:101060000598043002A904F0ABFD0399029821F021
:101070007F416FF31B1040EA011002900598043085
:10108000029904F0B5FD0598203001A904F098FDFF
:10109000BDF804006FF3DF30ADF804000598203090
:1010A000019904F0A5FD01200090FFF73DFDBDF87A
:1010B000040040F40040ADF8040005982030019988
:1010C00004F096FD0098FFF72FFDBDF804006FF3C4
:1010D000DF30ADF8040005982030019904F088FD58
:1010E0000098FFF721FDBDF8040040F40040ADF882
:1010F000040005982030019904F07AFD0098FFF76C
:1011000013FDBDF804006FF3DF30ADF8040005985F
:101110002030019904F06CFD06B080BD80B584B02C
:101120004FF4E06002900298583001A904F048FDA5
:101130000198012804D1FFE701208DF80F0003E09A
:1011400000208DF80F00FFE79DF80F0004B080BD70
:1011500080B590B084461298CDF838C00D910C92AD
:101160000B938DF82B00002009900E9A40F6340165
:10117000C2F2000151F822100791059001900798E2
:101180000D9900EB0110069009980E9A0D9941EA0D
:10119000024104F02DFD0698008940B1FFE70C984C
:1011A00028B9FFE71E20C1F200100F9095E0002043
:1011B0008DF82300FFE79DF82300069909898842EE
:1011C00012DAFFE709989DF8232000EB8200043033
:1011D0000C9951F8221004F00BFDFFE79DF8230055
:1011E00001308DF82300E6E70998FC3045F65A21D6
:1011F00004F0FEFC9DF82B0018B9FFE700200F90CB
:101200006BE00698C068049043F69820049041F281
:101210007000C2F20000C0680190FFE70998FC303E
:1012200003A904F0CDFC41F27000C2F20000C068D6
:101230000199401A0590FFE7BDF80E1000204AF210
:10124000A5529142009008D0FFE70599049A00202A
:10125000914238BF01200090FFE70098C0070028A6
:10126000DCD1FFE705980499884205D3FFE71C20ED
:10127000C1F200100F9030E00998043002A904F088
:101280009FFC0698408940B1FFE70B9828B9FFE71B
:101290001D20C1F200100F901FE000208DF82300E8
:1012A000FFE79DF8230006994989884212DAFFE793
:1012B00009989DF8232000EB820008300B9901EB80
:1012C000820104F07DFCFFE79DF8230001308DF8DA
:1012D0002300E6E702980F90FFE70F9810B080BD5B
:1012E00080B588B00790002103910691069800F51B
:1012F000887004F07DFC069800F58670012102914B
:1013000004F076FC0299069800F5887004F070FCF1
:1013100003980799643104910590FFE705980799B0
:101320000969884217D2FFE70798059900EBC102C7
:10133000049950699269920800F0B2FD07980599E6
:1013400000EBC1008169049808440490FFE7059808
:1013500001300590E2E7069800F5887000210191C0
:1013600004F046FC0199069800F5867004F040FCF4
:10137000069800F58870012104F03AFC08B080BDA1
:1013800080B5AEB08DF8B3002B910020169015906B
:1013900014904FF0FF311391129040F65140C2F279
:1013A00000000F902821FEF70AFF0F997420888013
:1013B00046F64610C7F2723008609DF8B30000F0A0
:1013C000FBFC16901698B8B1FFE740F65140C2F208
:1013D00000000E902821FEF7F2FE0E980021017108
:1013E00044F65041C3F64C210160169906300BF0CB
:1013F000A7FE16982D9041E264200CF0E1FF2B9897
:10140000FFF76EFF4FF0FF301390129800F58870D1
:1014100013A904F0D5FB1398B8B9FFE740F6514083
:10142000C2F200000D902821FEF7C9FE0D983A2166
:10143000818046F26D31C3F27521016013990A3043
:101440000BF07EFE13982D9018E26946012008608B
:101450000520002121AA17ABFFF77AFE16901698F7
:10146000B8B1FFE740F65140C2F200000C902821CD
:10147000FEF7A5FE0C983A21818046F65411C6F677
:101480006331016016990A300BF05AFE16982D90C0
:10149000F4E14FF0FF301390129800F5887013A913
:1014A00004F08EFB1398B8B9FFE740F65140C2F242
:1014B00000000B902821FEF782FE0B983A218180D4
:1014C00046F26D31C3F27531016013990A300BF0A9
:1014D00037FE13982D90D1E1694609200860052058
:1014E000022121AA17ABFFF733FE16901698C0B160
:1014F000FFE740F65140C2F200000A902821FEF7B3
:101500005EFE0A9846F66971C3F66E21416046F2A6
:101510005651C7F27231016016990A300BF010FE75
:10152000FFE74FF0FF301390129800F5887013A971
:1015300004F046FB1398B8B9FFE740F65140C2F2F9
:10154000000009902821FEF73AFE09983A2181808F
:1015500046F26D31C3F27541016013990A300BF008
:10156000EFFD13982D9089E117A808902821FEF728
:1015700026FE089B21AA1192119901200860DDF82E
:1015800044C00321CCF80810DDF844C0CCF80410A6
:10159000DDF844C09CF80C1001F0C00112318CF849
:1015A0000C10DDF844C09CF80C1041F0C0018CF820
:1015B0000C10DDF844C09CF80D1001F0C0010B3197
:1015C0008CF80D10DDF844C09CF80D104FF0020EA1
:1015D0006EF39F118CF80D10DDF844C09CF80E10CE
:1015E00001F0C0018CF80E10DDF844C09CF80E101C
:1015F00001F03F018CF80E10DDF844C09CF80F108C
:1016000001F0C0018CF80F10DDF844C09CF80F10F9
:1016100001F03F018CF80F10DDF844C09CF8131066
:1016200001F0C00111318CF81310DDF844C09CF8B2
:10163000131041F0C0018CF81310DDF844C09CF881
:10164000101001F0C0010B318CF81010DDF844C00F
:101650009CF810106EF39F118CF81010DDF844C048
:101660009CF8111001F0C0018CF81110DDF844C095
:101670009CF8111001F03F018CF81110DDF844C006
:101680009CF8121001F0C0018CF81210DDF844C073
:101690009CF8121001F03F018CF81210EC46092161
:1016A000CCF800100021FFF753FD16901698C0B13A
:1016B000FFE740F65140C2F2000007902821FEF7F4
:1016C0007EFD079843F63121818046F27011C6F203
:1016D0007211016016990A300BF032FD16982D90A8
:1016E000CCE04FF0FF301390129800F5887013A9EA
:1016F00004F066FA1398B8B9FFE740F65140C2F219
:10170000000006902821FEF75AFD06983A218180B4
:1017100046F26D31C3F27551016013990A300BF036
:101720000FFD13982D90A9E0002024902390229083
:10173000219017A805902821FEF741FD059B21AABD
:101740001092109801210160DDF840C00320CCF810
:101750000400DDF840C0CCF80800DDF840C09CF87B
:101760000C0000F0F7008CF80C00DDF840C09CF88D
:101770000C0000F0EF008CF80C00DDF840C09CF885
:101780000E0000F0F7008CF80E00DDF840C09CF869
:101790000E0000F0EF008CF80E00DDF840C09CF861
:1017A0000F0000F0DF008CF80F00DDF840C09CF85F
:1017B0000F0040F0C0008CF80F00DDF840C09CF82E
:1017C0000D0000F0DF008CF80D00DDF840C09CF843
:1017D0000D0040F0C0008CF80D00EC460920CCF85C
:1017E00000000846FFF7B4FC16901698C0B1FFE75A
:1017F00040F65140C2F2000004902821FEF7DFFCC1
:10180000049846F64961C0F23A01416046F270110F
:10181000C6F27211016016990A300BF091FCFFE7D5
:1018200017A803902821FEF7CAFC039B02202190F1
:1018300001202290694609200860002121AA08465B
:10184000FFF786FC16901698A8B1FFE740F65140C6
:10185000C2F2000002902821FEF7B1FC029800219C
:10186000017147F25501C0F23A01016016990A3040
:101870000BF066FCFFE700202D90FFE72D982EB0BF
:1018800080BD00000000000080B59CB016AB08933E
:10189000034608988DF86B3080ED020B80ED001B3D
:1018A0008DF857108DF856204FF4E06014904FF4E7
:1018B000007013900020109013980430109904F0D9
:1018C00097F99DF86B0018B9FFE700201B905DE2C7
:1018D000BDF8400040F00100ADF84000139804301E
:1018E000109904F085F91498443011A904F068F9AE
:1018F000089890ED000B9FEDE61B53EC112B51EC7B
:10190000100BFEF794FD41EC100B0FF075FF51EC3E
:10191000100B9FEDE10B53EC102BFEF788FD41EC13
:10192000100B51EC100B9FEDDE0B53EC102BFEF760
:1019300065FC41EC100B51EC100BFEF766FE0A90B3
:10194000BDF82810BDF846006FF35F3100F4604029
:101950000844ADF846009DF85700012805D0FFE780
:101960009DF85700022812D1FFE79DF8440040F08F
:1019700020008DF844009DF8440040F010008DF8E0
:10198000440014984430119904F032F911E09DF8A4
:10199000440000F0DF008DF844009DF8440000F0A2
:1019A000EF008DF8440014984430119904F020F9A8
:1019B000FFE79DF85700012805D0FFE79DF8570085
:1019C000022817D1FFE7012107910846FFF794F994
:1019D0000798FFF76BF90798FFF70AF900200690C0
:1019E000FFF748F906990798FFF7E4F90798FFF71A
:1019F000D7FA1AE09DF85700B0B9FFE7002105912A
:101A00000846FFF779F90598FFF750F90598FFF7B1
:101A1000EFF80598FFF72EF905990846FFF7CAF980
:101A20000598FFF7BDFAFFE7FFE79DF8570002288A
:101A300004D1FFE70120FFF7E9F90DE09DF8570019
:101A4000012804D0FFE79DF8570020B9FFE70020E8
:101A5000FFF7DCF9FFE7FFE79DF8570020B9FFE744
:101A600000208DF836001CE09DF85700012805D0B5
:101A7000FFE79DF85700022804D1FFE701208DF809
:101A800036000DE09DF85700032804D1FFE702203F
:101A90008DF8360003E004208DF83600FFE7FFE7FD
:101AA000FFE79DF83600FFF7E7F91498343012A9E4
:101AB00004F086F89DF8480000F0F3008DF8480027
:101AC00014983430129904F093F801208DF827000F
:101AD0009DF82700002854D1FFE7089890ED001BDF
:101AE00090ED020B51EC110B53EC102BFEF79FFC09
:101AF00041EC100B10F0B8F851EC100BFEF785FD1F
:101B0000014608980F9190ED001B90ED020B51ECEF
:101B1000110B53EC102BFEF78AFC41EC100B8DEDF2
:101B2000020B0F98FEF739FD9DED021B41EC100BE7
:101B300051EC110B53EC102BFEF779FC41EC100B20
:101B400051EC100B9FED960B53EC102BFEF756FB50
:101B500041EC100B51EC100B9FED950B53EC102B3F
:101B6000FEF7F3FB41EC100B51EC100BFEF74DFDB3
:101B700020F07F400E9014980F990E9AFFF766FAA6
:101B80005FE0089890ED001B90ED020B51EC110BFB
:101B900053EC102BFEF74BFC41EC100B51EC100BEF
:101BA0009FED7D0B53EC102BFEF741FC41EC100B2D
:101BB00010F05AF851EC100BFEF727FD014608987B
:101BC0000F9190ED001B90ED020B51EC110B53ECBB
:101BD000102BFEF72CFC41EC100B8DED000B0F9839
:101BE000FEF7DBFC9DED001B41EC100B51EC110BE3
:101BF00053EC102BFEF71BFC41EC100B51EC100BBF
:101C00009FED670B53EC102BFEF7F8FA41EC100B2D
:101C100051EC100B9FED640B53EC102BFEF795FB72
:101C200041EC100B51EC100BFEF7EFFC20F07F4065
:101C30000E9014980F990E9AFFF708FAFFF7CEF955
:101C4000FFE79DF82700FFF7E1F99DF856008DF8B2
:101C50003700149804300CA903F0B2FF9DF8371038
:101C60000C9801F0030120F00C0040EA81000C9078
:101C7000149804300C9903F0BBFF149840300BA962
:101C800003F09EFF9DF83700012815D10CE000BF3E
:101C90000000000084D7A7410000000000000040C1
:101CA000000000000000F03FBDF82E0000F460408E
:101CB0002830ADF82E0007E0BDF82E0000F460409B
:101CC0005030ADF82E00FFE7149840300B9903F028
:101CD0008FFF9DF85700012805D0FFE79DF85700BA
:101CE000022817D1FFE71498443011A903F068FFC8
:101CF0009DF8440040F020008DF844009DF8440019
:101D000000F0EF008DF8440014984430119903F06E
:101D10006FFFFFE7BDF8420040F00100ADF8420060
:101D200013980430109903F063FF4FF47A70FEF7B4
:101D3000FBFE9DF85700012805D0FFE79DF85700EE
:101D4000022814D1FFE7FEF701FF28B9FFE70920B9
:101D5000C1F200101B9019E09DF85700012805D131
:101D6000FFE701210846FFF725F8FFE7FFE79DF8A9
:101D7000570040B9FFE7FFF76FF840F66421C2F261
:101D800000010880FFE700201B90FFE71B981CB0B4
:101D900080BD00BF00BF00BF000000000000104079
:101DA000000000000000F0BF0000000000008041C3
:101DB000000000000000904180B588B08DF81B0045
:101DC0000020049004989DF81B1003F011FF9DF86B
:101DD0001B000B2809DBFFE79DF81B00102804DC23
:101DE000FFE701208DF80F0003E000208DF80F00C1
:101DF000FFE79DF81B2040F27870C2F2000000EB74
:101E0000C20150F832004968FEF7D4FB41EC110BD7
:101E10009DF80F2001209FED200B00210291FFF77C
:101E200033FD02980590FFE70A20FEF77DFEFFF7DD
:101E300075F98DF81A00059801300590FFE79DF8B7
:101E40001A100020019041B9FFE705990020B1F573
:101E50007A7F38BF01200190FFE70198C007002872
:101E6000E2D1FFE7FFF75AF98DF81A009DF81A0042
:101E7000012805D0FFE72520C1F20010079006E0F9
:101E8000FEF7EAFFADF8180000200790FFE707987B
:101E900008B080BD00BF00BF00000000804F82413D
:101EA00080B586B0059004910392002002900190C5
:101EB000FFE701980399884230D2FFE7029800F5C6
:101EC00082700599019A01EB820103F091FE01985D
:101ED00040F63001C2F200010968084403998842C3
:101EE00005D9FFE703980199401A009006E040F6F3
:101EF0003000C2F2000000680090FFE7029800F591
:101F000084700499019A01EB8201009A920003F017
:101F1000A1FD0099019808440190CAE706B080BD70
:101F20007047000080B582B0009000980138B0F191
:101F3000807F03D3FFE70120019019E0009801386A
:101F40004EF21401CEF2000108604FF0FF30032181
:101F500000F02AF94EF21801CEF2000100200860CC
:101F60004EF21002CEF20002072111600190FFE74D
:101F7000019802B080BD000080B541F27001C2F24C
:101F80000001C8680130C86048690130486188694B
:101F90000130886108690130086103F029FC80BDC7
:101FA00080B582B04EF68851CEF20001086840F448
:101FB0007000086041F20001C4F20201086840F0BC
:101FC00001000860FFE741F20000C4F2020000686F
:101FD0008007002801D4FFE7F5E7FFE741F204019D
:101FE000C4F20201086840F08000086000200190FF
:101FF000FFE701984F2805D8FFE7FFE70198013078
:102000000190F6E741F20401C4F20201086840F0D1
:102010009000086000200190FFE701984F2805D844
:10202000FFE7FFE7019801300190F6E7FFE741F293
:102030000403C4F20203186820F00300186041F2A0
:102040000001C4F2020108684FF6FF72CFF6F26297
:1020500010400860186840F20C0CC0F6FF0C00EA53
:102060000C00186018684FF6FF7CCFF2C07C00EAC5
:102070000C00186008681040086041F22C01C4F29E
:102080000201086820F00F00086041F23001C4F23C
:102090000201086840F2FF1290430860086820F4CB
:1020A00080300860086820F00040086041F2340188
:1020B000C4F20201086820F00100086041F2080142
:1020C000C4F202010020009008600CF075F900993C
:1020D0004FF0006007F098FC02B080BD80B582B080
:1020E00043F60000C4F201000521C0F205710EF0B4
:1020F000A3FE28B3FFE743F60000C4F201000EF090
:1021000013FE014641F22C20C2F2000003885A1C43
:10211000028041F20C22C2F20002D154008840F643
:102120009C11C2F200010978884208D1FFE743F60A
:102130000000C4F2010005210EF05AFEFFE7FFE7A0
:1021400043F60000C4F201000721C0F207710EF04F
:1021500073FE30B3FFE741F22C22C2F2000201927B
:102160001188481C108041F20C20C2F20000415C32
:1021700043F60000C4F201000EF0DEFD0198008875
:1021800040F69C11C2F200010978884208D1FFE7AD
:1021900043F60000C4F2010007210EF029FEFFE71C
:1021A000FFE702B080BD000082B08DF8070000910B
:1021B0009DF9070000280AD4FFE7009880019DF9E7
:1021C00007104EF20042CEF2000288540BE0009855
:1021D00080019DF8071001F00F014EF61452CEF267
:1021E00000028854FFE702B07047000010B584B0C9
:1021F0008C468646089807980699CDF80CE0ADF80D
:102200000AC0ADF80820ADF80630ADF804108DF81E
:102210000300039860B1FFE7BDF80A00012807DB5F
:10222000FFE7089820B1FFE79DF8030008B9FFE732
:1022300041E0BDF80800BDF80610884207DCFFE762
:10224000BDF80600BDF80A10884201DBFFE732E066
:10225000BDF80800BDF8061088420CD1FFE7BDF8B4
:1022600008009DF8031000FB01F0642100FB01F061
:10227000089908601EE0BDF808109DF8032001FBD6
:1022800002F0DDF80CC03CF81130BDF80410591A0A
:1022900001FB02F2642102FB01F2BDF806E03CF80A
:1022A0001EC0A3EB0C0392FBF3F200FB0120089984
:1022B0000860FFE7FFE704B010BD000042F20841EC
:1022C000C4F20101086840F008000860FFE742F22C
:1022D0000840C4F2010000680007002801D5FFE7AC
:1022E000F5E742F20841C4F20101086840F0040039
:1022F0000860FFE742F20840C4F2010000684007AE
:10230000002801D5FFE7F5E77047000083B08DF89E
:102310000B0001919DF80B0001460091012804D0AB
:10232000FFE70098022814D027E042F22C41C4F2C3
:102330000101086820F470000860019A0020CFF6BF
:10234000F07000EB025000F470020868104308605F
:1023500014E042F23841C4F20101086820F4401050
:102360000860019A0020CFF6F07000EB025000F4F4
:10237000401208681043086000E0FFE703B07047B0
:1023800081B00090009848B1FFE742F20841C4F2E2
:102390000101086840F40060086008E042F208416A
:1023A000C4F20101086820F400600860FFE701B092
:1023B0007047000080B584B08DF80F0000200290B7
:1023C00003218DF807100090FFE700989DF8072083
:1023D0000121914088420DDAFFE79DF80F0000F0DF
:1023E000CBFA0146029808440290FFE700980130BA
:1023F0000090EAE79DF807100298C8400290BDF8E7
:10240000080004B080BD000080B58AB000200290B2
:10241000FFE7029802280FD8FFE7029A40F6C8119A
:10242000C2F2000131F81200002021F81200FFE78B
:10243000029801300290ECE70020019003F01EFAB0
:10244000019842F24C41C4F2010103918DF824003D
:1024500040F6C811C2F20001059101218DF8251046
:102460004FF4807104914FF4806106918DF826003D
:10247000032107914FF40051089103A903F03EFA9C
:10248000019803F0E9F9019803F0D4F90AB080BD8E
:1024900042F20841C4F20101086840F4807008600B
:1024A0007047000042F20840C4F201000068C00713
:1024B00048B9FFE742F20841C4F20101086840F060
:1024C00001000860FFE7704781B08DF803008DF8C8
:1024D00002109DF80200F0B1FFE79DF80300C0076D
:1024E00048B1FFE742F20841C4F20101086840F434
:1024F00080100860FFE79DF803008007002809D5D9
:10250000FFE742F20841C4F20101086840F40040CC
:102510000860FFE71DE09DF80300C00748B1FFE732
:1025200042F20841C4F20101086820F480100860FA
:10253000FFE79DF803008007002809D5FFE742F276
:102540000841C4F20101086820F400400860FFE778
:10255000FFE701B07047000083B08DF80B000191D8
:102560009DF80B0001460091012804D0FFE7009878
:10257000022810D01FE042F20841C4F201010868AD
:102580004FF6FF72CFF6F13210400860019A0868EA
:102590001043086010E042F20841C4F201010868EB
:1025A00048F6FF72CFF6FF5210400860019A0868A3
:1025B0001043086000E0FFE703B0704781B000906F
:1025C000009A42F20041C4F2010108689043086099
:1025D00001B0704782B0019000208DF8030042F2F4
:1025E0000040C4F2010000680199084204D0FFE7EE
:1025F00001208DF80300FFE79DF8030002B070474B
:1026000085B08DF813008DF81210039242F2384114
:10261000C4F201010868C0F301508DF80B0008688E
:1026200001909DF80B009DF81320801A00EB8000AC
:10263000C0F10F021F2000FA02F2019890430190AE
:102640009DF812009DF80B209DF81330D21A02EB72
:102650008202C2F10F0200FA02F2019810430190C7
:10266000019808609DF8120009281DD8FFE742F282
:102670001041C4F20101086800909DF8120000EBBF
:102680004002072000FA02F200989043009003985D
:102690009DF8122002EB420200FA02F20098104369
:1026A00000900098086026E09DF81200122820D8BB
:1026B000FFE742F20C41C4F20101086800909DF866
:1026C000120000EB4000A0F11E02072000FA02F207
:1026D00000989043009003989DF8122002EB42026C
:1026E0001E3A00FA02F20098104300900098086029
:1026F00000E0FFE7FFE705B07047000080B588B055
:102700008DF81F008DF81E100020069005900C21FA
:102710008DF8131003904FF48051029101900090B6
:10272000FFE700989DF81310884220DAFFE79DF834
:102730001F009DF81E1004F08BFA01900198039978
:10274000884203D9FFE701980390FFE701980299B7
:10275000884203D2FFE701980290FFE701990698AB
:1027600008440690FFE7009801300090D9E70698EA
:102770000399401A0299401A9DF813100239B0FBD0
:10278000F1F00590BDF8140008B080BD83B08DF85D
:102790000B009DF80B0001460091032820D80099FA
:1027A000DFE801F00209101742F23C40C4F20100D8
:1027B0000068019017E042F24040C4F20100006856
:1027C000019010E042F24440C4F201000068019020
:1027D00009E042F24840C4F201000068019002E0C2
:1027E00000200190FFE7BDF8040003B0704700002F
:1027F00084B08DF80F008DF80E1002929DF80F0036
:1028000005281ED8FFE742F23441C4F201010868EE
:1028100001909DF80F0000EB80021F2000FA02F2E9
:102820000198904301909DF80E009DF80F2002EB57
:10283000820200FA02F201981043019001980860A8
:102840004EE09DF80F000B2821D8FFE742F23041FF
:10285000C4F20101086801909DF80F0000EB8000B0
:10286000A0F11E021F2000FA02F20198904301908D
:102870009DF80E009DF80F2002EB82021E3A00FA2E
:1028800002F20198104301900198086027E09DF83A
:102890000F000F2821D8FFE742F22C41C4F20101BA
:1028A000086801909DF80F0000EB8000A0F13C0249
:1028B0001F2000FA02F20198904301909DF80E004B
:1028C0009DF80F2002EB82023C3A00FA02F20198D6
:1028D000104301900198086000E0FFE7FFE7FFE781
:1028E0009DF80E0009281DD8FFE742F21041C4F2FE
:1028F0000101086800909DF80E0000EB40020720DF
:1029000000FA02F200989043009002989DF80E2081
:1029100002EB420200FA02F2009810430090009885
:10292000086026E09DF80E00122820D8FFE742F24A
:102930000C41C4F20101086800909DF80E0000EB04
:102940004000A0F11E02072000FA02F20098904316
:10295000009002989DF80E2002EB42021E3A00FA07
:1029600002F20098104300900098086000E0FFE732
:10297000FFE704B07047000082B08DF805009DF8B5
:10298000050001460091042810D0FFE700980A28AE
:1029900008D0FFE700980B280CD1FFE700208DF846
:1029A00004000BE001208DF8040007E002208DF800
:1029B000040003E00020ADF806000AE09DF80410D2
:1029C00040F6C810C2F2000030F81100ADF8060061
:1029D000FFE7BDF8060002B07047000080B586B082
:1029E000022005900121049100F0B4F804994FF4FD
:1029F000807000F0AFF804984FF46021FFF7ACFD51
:102A000004990846FFF760FD05984FF4E041FFF791
:102A1000A3FD04990598FFF757FD00200290FFF7EA
:102A2000AFFC049803210191FFF770FC02980B2181
:102A300005220392FFF7DCFE039A04980A21FFF7B0
:102A4000D7FE039A05980421FFF7D2FE0199059855
:102A5000FFF75CFC0298039A0C21FFF7D1FD039A63
:102A600004981146FFF7CCFD0299039A0598FFF7E9
:102A7000C7FDFFF717FD04980BF0A2FCFFF71EFC43
:102A8000FFF706FD049800F043F8059800F040F8C1
:102A900006B080BD80B586B040F60000C4F60000E8
:102AA00000900321039100220492022305F0BAF85A
:102AB00000980399049A0123059305F0B3F803994C
:102AC000049A40F20040C4F60000029004230193EF
:102AD00005F0A8F80098019B0399049A05F0A2F864
:102AE00002980399049A082305F09CF80399049A24
:102AF000059B4FF0904005F095F806B080BD0000B2
:102B000080B5FFF7C7FFFFF77FFCFFF767FF80BDCA
:102B100081B08DF803009DF80300C00748B1FFE7BE
:102B200042F20841C4F20101086840F480000860E4
:102B3000FFE79DF803008007002809D5FFE742F270
:102B40000841C4F20101086840F400100860FFE782
:102B500001B0704782B001908DF803109DF803001A
:102B600068B3FFE79DF80500C00748B1FFE742F2F0
:102B70000441C4F20101086840F480700860FFE776
:102B80009DF805004007002809D5FFE742F20441FF
:102B9000C4F20101086840F480600860FFE79DF816
:102BA00004008007002809D5FFE742F20841C4F27B
:102BB0000101086840F002000860FFE72CE09DF882
:102BC0000500C00748B1FFE742F20441C4F2010129
:102BD000086820F480700860FFE79DF80500400752
:102BE000002809D5FFE742F20441C4F20101086858
:102BF00020F480600860FFE79DF80400800700284B
:102C000009D5FFE742F20841C4F20101086820F04B
:102C100002000860FFE7FFE702B0704780B582B0AE
:102C200001900091019820B1FFE70098032801D896
:102C3000FFE742E001984078022805D1FFE70198BC
:102C400000781C2801D0FFE737E00198807868B948
:102C5000FFE70198C07840F6E811C2F2000181F860
:102C60003E000198C07802F0DFFB25E001988078F3
:102C700001280DD1FFE70198C07840F6E811C2F2B3
:102C8000000181F841000198C07802F01DFA12E0BD
:102C90000198807802280DD1FFE70198C07840F6AE
:102CA000E811C2F2000181F844000198C07802F0F6
:102CB000F3FAFFE7FFE7FFE7FFE702B080BD0000A0
:102CC00080B586B003AA019205900491002003907C
:102CD000ADF80A00059820B1FFE70498042801D850
:102CE000FFE76BE005984078042805D1FFE70598D9
:102CF00000781C2801D0FFE760E00598033004F05D
:102D0000A3F8ADF80A00BDF80A00FDF735FC41EC68
:102D1000100B9FED2B1B53EC112B51EC100BFDF7FF
:102D200014FB41EC100B51EC100BFDF79AFC0390D7
:102D30000598807890B9FFE701980599C97840F621
:102D4000E812C2F2000282F83F100599097982F870
:102D5000401090ED000A02F06DFB2FE0059880789E
:102D6000012812D1FFE701980599C97840F6E812C9
:102D7000C2F2000282F842100599097982F84310E4
:102D800090ED000A02F0AAF917E005988078022871
:102D900012D1FFE701980599C97840F6E812C2F20E
:102DA000000282F845100599097982F8461090EDE5
:102DB000000A02F07BFAFFE7FFE7FFE706B080BDFD
:102DC0009A9999999999B93F80B586B005900491DF
:102DD0000598013003900398013004F035F8ADF800
:102DE0000A00BDF80A00FDF7C7FB41EC100B9FED90
:102DF000461B53EC112B51EC100BFDF7A6FA41ECDE
:102E0000100B51EC100BFDF72CFC0190039800788F
:102E100010BBFFE79DED010A9FED3D1AB4EE410A9C
:102E2000F1EE10FA0FDCFFE79DED010A02F086FBE0
:102E30009DF80B0040F6E811C2F200010873BDF8DE
:102E40000A00487307E040F6E811C2F200010020D2
:102E500008734873FFE7FFE703980078012826D13D
:102E6000FFE79DED010A9FED2B1AB4EE410AF1EE4A
:102E700010FA11DCFFE79DED010A02F0D9F99DF887
:102E80000B0040F6E811C2F2000181F82400BDF801
:102E90000A0081F8250009E040F6E811C2F20001BD
:102EA000002081F8240081F82500FFE7FFE7039860
:102EB0000078022826D1FFE79DED010A9FED161A42
:102EC000B4EE410AF1EE10FA11DCFFE79DED010AC4
:102ED00002F080FA9DF80B0040F6E811C2F2000102
:102EE00081F83600BDF80A0081F8370009E040F6A5
:102EF000E811C2F20001002081F8360081F83700A5
:102F0000FFE7FFE706B080BD9A9999999999B93F73
:102F100000000C42000020420000484280B583B00F
:102F2000844606980598CDF808C0ADF80610ADF8AF
:102F30000420ADF80230ADF80000029840B1FFE780
:102F4000BDF80600012803DBFFE7069808B9FFE794
:102F500036E0BDF80400BDF80210884207DCFFE748
:102F6000BDF80200BDF80610884201DBFFE727E04C
:102F7000BDF80400BDF80210884208D1FFE7BDF893
:102F80000400642100FB01F00699086018E0BDF818
:102F90000400DDF808C03CF81030BDF800105A1AE3
:102FA000642102FB01F2BDF802E03CF81EC0A3EB75
:102FB0000C0392FBF3F200FB012006990860FFE787
:102FC00003B080BD0000000080B58EB08DF83700E2
:102FD0000020ADF834009DF8370070B9FFE741F2EA
:102FE0003020C2F20000416B0C91816B0B91C06BE1
:102FF0000A900DA802F03AFA2AE09DF8370001285D
:103000000ED1FFE741F23020C2F20000C16E0C91F8
:10301000016F0B91406F0A900DA802F07FF816E047
:103020009DF83700022811D1FFE741F23020C2F2AB
:103030000000D0F89C100C91D0F8A0100B91D0F8A3
:10304000A4000A900DA802F055F9FFE7FFE7FFE79B
:10305000BDF83400FDF790FA41EC100B9FED401BDA
:1030600053EC112B51EC100BFDF7E1F941EC100B77
:1030700051EC100BFDF7F5FA09900C98FDF7DEFA0C
:1030800041EC100B8DED020B9DED090A9DED0B1A25
:1030900080EE010A10EE100AFDF7D0FA41EC100B99
:1030A0000EF036FC8DED000B0A98FDF7C7FA9DED8A
:1030B000001B9DED020B41EC120B8DED042B53EC2C
:1030C000112B51EC100BFDF740F99DED040B41EC79
:1030D000110B51EC110B53EC102BFDF78FF841EC59
:1030E000100B51EC100BFDF7BCFA08909DED080A8F
:1030F0009FED211A80EE010A8DED070A0798FDF772
:103100009DFA41EC100B9FED181B53EC112B51EC69
:10311000100BFDF716FA30B9FFE74BF21770C3F644
:10312000D1000790FFE70798FDF788FA41EC100BF4
:103130000FF00AF89FED0E1B53EC112B51EC100B06
:10314000FDF703F941EC100B51EC100BFDF789FA78
:1031500006909DED060A0EB080BD00BF00BF00BF07
:1031600000000000000064402D431CEBE2361A3FD3
:1031700000000000000024400000C84200000000E1
:1031800080B58EB08DF8370000200C900B900A901F
:103190000990079006909DF8370058BBFFE741F271
:1031A0003020C2F20000C16A0A91006B09900CA89D
:1031B00002F058F940F6CE10C2F20000C088FDF7C8
:1031C000DBF941EC100B9FED681B53EC112B51EC1C
:1031D000100BFDF7BAF841EC100B51EC100B9FED02
:1031E000640B53EC102BFDF722F941EC100B8DED25
:1031F000060B63E09DF8370001282BD1FFE741F271
:103200003020C2F20000416E0A91806E09900CA835
:1032100001F07CFF40F6CE10C2F20000C089FDF73D
:10322000ABF941EC100B9FED501B53EC112B51EC03
:10323000100BFDF78AF841EC100B51EC100B9FEDD1
:103240004C0B53EC102BFDF7F2F841EC100B8DED0D
:10325000060B32E09DF8370002282DD1FFE741F23E
:103260003020C2F20000D0F894100A91D0F89800F3
:1032700009900CA802F030F840F6CE10C2F200001F
:10328000C08AFDF779F941EC100B9FED371B53EC29
:10329000112B51EC100BFDF758F841EC100B51ECD1
:1032A000100B9FED330B53EC102BFDF7C0F841ECE6
:1032B000100B8DED060BFFE7FFE7FFE70A98FDF720
:1032C000BDF941EC100B8DED020B9DED060B8DED64
:1032D000000B0998FDF7B2F99DED001B9DED020B67
:1032E00041EC120B8DED042B53EC112B51EC100B18
:1032F000FDF72BF89DED040B41EC110B51EC110B7C
:1033000053EC102BFCF77AFF41EC100B51EC100B37
:10331000FDF7A7F90B909DED0B0AB5EE400AF1EE13
:1033200010FA06DCFFE74BF21770C3F6D1000B90E2
:10333000FFE70B98FDF782F941EC100B0EF004FF4C
:103340009FED0D1B53EC112B51EC100BFCF7FDFF07
:1033500041EC100B51EC100BFDF783F90B909DED38
:103360000B0A0EB080BD00BF0000000000005940F5
:1033700000000000E0FFEF400000000000002440DB
:1033800080B588B007900691079820B1FFE70698AE
:10339000072801D8FFE724E1079840780A2805D1DB
:1033A000FFE7079800781C2801D0FFE719E107988C
:1033B000817840F6E810C2F2000080F85D100799AD
:1033C000C97880F85E100799097980F85F1007992D
:1033D000497980F860100799897980F86110079918
:1033E000C97980F862100021ADF81610ADF81410FC
:1033F000ADF8121090F85D000006002824D5FFE714
:1034000040F6E810C2F2000090F85D1090F85E00FF
:1034100040EA01204042ADF81600BDF816004042D7
:10342000FDF7AAF841EC100B9FED6F1B53EC112B2D
:1034300051EC100BFCF7FBFF41EC100B51EC100BA7
:10344000FDF70FF9039021E040F6E810C2F200000A
:1034500090F85D1090F85E0040EA0120ADF816008B
:10346000BDF81600FDF788F841EC100B9FED5E1BD0
:1034700053EC112B51EC100BFCF7D9FF41EC100B66
:1034800051EC100BFDF7EDF80390FFE740F6E81064
:10349000C2F2000090F85F000006002824D5FFE784
:1034A00040F6E810C2F2000090F85F1090F860005B
:1034B00040EA01204042ADF81400BDF8140040423B
:1034C000FDF75AF841EC100B9FED471B53EC112B05
:1034D00051EC100BFCF7ABFF41EC100B51EC100B57
:1034E000FDF7BFF8029021E040F6E810C2F20000BC
:1034F00090F85F1090F8600040EA0120ADF81400E9
:10350000BDF81400FDF738F841EC100B9FED361BA9
:1035100053EC112B51EC100BFCF789FF41EC100B15
:1035200051EC100BFDF79DF80290FFE740F6E81014
:10353000C2F2000090F861000006002824D5FFE7E1
:1035400040F6E810C2F2000090F8611090F86200B6
:1035500040EA01204042ADF81200BDF8120040429E
:10356000FDF70AF841EC100B9FED1F1B53EC112BDC
:1035700051EC100BFCF75BFF41EC100B51EC100B06
:10358000FDF76FF8019021E040F6E810C2F200006C
:1035900090F8611090F8620040EA0120ADF8120046
:1035A000BDF81200FCF7E8FF41EC100B9FED0E1B7D
:1035B00053EC112B51EC100BFCF739FF41EC100BC5
:1035C00051EC100BFDF74DF80190FFE7039841F225
:1035D0003021C2F20001C866029808670198486766
:1035E000FFE708B080BD00BF0000000000408F4032
:1035F00080B588B007900691079820B1FFE706983C
:10360000072801D8FFE727E1079840780D2805D162
:10361000FFE7079800781C2801D0FFE71CE1079816
:10362000817840F6E810C2F2000080F86B1007992C
:10363000C97880F86C100799097980F86D1007999E
:10364000497980F86E100799897980F86F10079989
:10365000C97980F870100021ADF81610ADF814107B
:10366000ADF8121090F86B000006002824D5FFE793
:1036700040F6E810C2F2000090F86B1090F86C0071
:1036800040EA01204042ADF81600BDF81600404265
:10369000FCF772FF41EC100B9FED711B53EC112BEB
:1036A00051EC100BFCF7C3FE41EC100B51EC100B6E
:1036B000FCF7D7FF039021E040F6E810C2F20000CB
:1036C00090F86B1090F86C0040EA0120ADF81600FD
:1036D000BDF81600FCF750FF41EC100B9FED601B8E
:1036E00053EC112B51EC100BFCF7A1FE41EC100B2D
:1036F00051EC100BFCF7B5FF0390FFE740F6E81024
:10370000C2F2000090F86D000006002824D5FFE703
:1037100040F6E810C2F2000090F86D1090F86E00CC
:1037200040EA01204042ADF81400BDF814004042C8
:10373000FCF722FF41EC100B9FED491B53EC112BC2
:1037400051EC100BFCF773FE41EC100B51EC100B1D
:10375000FCF787FF029021E040F6E810C2F200007B
:1037600090F86D1090F86E0040EA0120ADF814005A
:10377000BDF81400FCF700FF41EC100B9FED381B67
:1037800053EC112B51EC100BFCF751FE41EC100BDC
:1037900051EC100BFCF765FF0290FFE740F6E810D4
:1037A000C2F2000090F86F000006002824D5FFE761
:1037B00040F6E810C2F2000090F86F1090F8700028
:1037C00040EA01204042ADF81200BDF8120040422C
:1037D000FCF7D2FE41EC100B9FED211B53EC112B9B
:1037E00051EC100BFCF723FE41EC100B51EC100BCD
:1037F000FCF737FF019021E040F6E810C2F200002C
:1038000090F86F1090F8700040EA0120ADF81200B7
:10381000BDF81200FCF7B0FE41EC100B9FED101B41
:1038200053EC112B51EC100BFCF701FE41EC100B8B
:1038300051EC100BFCF715FF0190FFE7039841F2E4
:103840003021C2F20001C1F89C000298C1F8A0002A
:103850000198C1F8A400FFE708B080BD00BF00BF19
:103860000000000000408F4080B588B007900691AE
:10387000079820B1FFE70698072801D8FFE724E161
:1038800007984078072805D1FFE7079800781C289B
:1038900001D0FFE719E10798817840F6E810C2F2FD
:1038A000000080F84F100799C97880F850100799E8
:1038B000097980F851100799497980F852100799D1
:1038C000897980F853100799C97980F8541000213C
:1038D000ADF81610ADF81410ADF8121090F84F00B6
:1038E0000006002824D5FFE740F6E810C2F20000E9
:1038F00090F84F1090F8500040EA01204042ADF897
:103900001600BDF816004042FCF736FE41EC100BE5
:103910009FED6F1B53EC112B51EC100BFCF787FD47
:1039200041EC100B51EC100BFCF79BFE039021E0D7
:1039300040F6E810C2F2000090F84F1090F85000E6
:1039400040EA0120ADF81600BDF81600FCF714FEA1
:1039500041EC100B9FED5E1B53EC112B51EC100B47
:10396000FCF765FD41EC100B51EC100BFCF779FEF8
:103970000390FFE740F6E810C2F2000090F8510013
:103980000006002824D5FFE740F6E810C2F2000048
:1039900090F8511090F8520040EA01204042ADF8F2
:1039A0001400BDF814004042FCF7E6FD41EC100B9A
:1039B0009FED471B53EC112B51EC100BFCF737FD1F
:1039C00041EC100B51EC100BFCF74BFE029021E088
:1039D00040F6E810C2F2000090F8511090F8520042
:1039E00040EA0120ADF81400BDF81400FCF7C4FD56
:1039F00041EC100B9FED361B53EC112B51EC100BCF
:103A0000FCF715FD41EC100B51EC100BFCF729FEF7
:103A10000290FFE740F6E810C2F2000090F8530071
:103A20000006002824D5FFE740F6E810C2F20000A7
:103A300090F8531090F8540040EA01204042ADF84D
:103A40001200BDF812004042FCF796FD41EC100B4D
:103A50009FED1F1B53EC112B51EC100BFCF7E7FCF7
:103A600041EC100B51EC100BFCF7FBFD019021E039
:103A700040F6E810C2F2000090F8531090F854009D
:103A800040EA0120ADF81200BDF81200FCF774FD09
:103A900041EC100B9FED0E1B53EC112B51EC100B56
:103AA000FCF7C5FC41EC100B51EC100BFCF7D9FDF9
:103AB0000190FFE7039841F23021C2F20001486310
:103AC000029888630198C863FFE708B080BD00BF13
:103AD0000000000000408F4080B586B00590049142
:103AE000059820B1FFE70498052801D8FFE7C8E052
:103AF00005984078082805D1FFE7059800781C282C
:103B000001D0FFE7BDE00598817840F6E810C2F2E9
:103B1000000080F855100599C97880F8561005996D
:103B2000097980F857100599497980F858100021D3
:103B3000ADF80E10ADF80C1090F8550000060028F6
:103B400024D5FFE740F6E810C2F2000090F85510C7
:103B500090F8560040EA01204042ADF80E00BDF852
:103B60000E004042FCF708FD41EC100B9FED461B98
:103B700053EC112B51EC100BFCF759FC41EC100BE2
:103B800051EC100BFCF76DFD029021E040F6E810BF
:103B9000C2F2000090F8551090F8560040EA01205B
:103BA000ADF80E00BDF80E00FCF7E6FC41EC100B82
:103BB0009FED351B53EC112B51EC100BFCF737FC30
:103BC00041EC100B51EC100BFCF74BFD0290FFE7A2
:103BD00040F6E810C2F2000090F8570000060028F6
:103BE00024D5FFE740F6E810C2F2000090F8571025
:103BF00090F8580040EA01204042ADF80C00BDF8B2
:103C00000C004042FCF7B8FC41EC100B9FED1E1B72
:103C100053EC112B51EC100BFCF709FC41EC100B91
:103C200051EC100BFCF71DFD019021E040F6E8106F
:103C3000C2F2000090F8571090F8580040EA0120B6
:103C4000ADF80C00BDF80C00FCF796FC41EC100B35
:103C50009FED0D1B53EC112B51EC100BFCF7E7FB08
:103C600041EC100B51EC100BFCF7FBFC0190FFE753
:103C7000029841F23021C2F20001C865019808663D
:103C8000FFE706B080BD00BF0000000000408F408D
:103C900080B586B005900491059820B1FFE704989F
:103CA000052801D8FFE7CAE0059840780B2805D120
:103CB000FFE7059800781C2801D0FFE7BFE00598D2
:103CC000817840F6E810C2F2000080F86310059990
:103CD000C97880F864100599097980F8651005990C
:103CE000497980F866100021ADF80E10ADF80C107F
:103CF00090F863000006002824D5FFE740F6E8109E
:103D0000C2F2000090F8631090F8640040EA0120CD
:103D10004042ADF80E00BDF80E004042FCF72CFC0E
:103D200041EC100B9FED481B53EC112B51EC100B89
:103D3000FCF77DFB41EC100B51EC100BFCF791FCF8
:103D4000029021E040F6E810C2F2000090F8631003
:103D500090F8640040EA0120ADF80E00BDF80E00B6
:103D6000FCF70AFC41EC100B9FED371B53EC112BB9
:103D700051EC100BFCF75BFB41EC100B51EC100B02
:103D8000FCF76FFC0290FFE740F6E810C2F200007B
:103D900090F865000006002824D5FFE740F6E810FB
:103DA000C2F2000090F8651090F8660040EA012029
:103DB0004042ADF80C00BDF80C004042FCF7DCFBC3
:103DC00041EC100B9FED201B53EC112B51EC100B11
:103DD000FCF72DFB41EC100B51EC100BFCF741FCF8
:103DE000019021E040F6E810C2F2000090F8651062
:103DF00090F8660040EA0120ADF80C00BDF80C0018
:103E0000FCF7BAFB41EC100B9FED0F1B53EC112B91
:103E100051EC100BFCF70BFB41EC100B51EC100BB1
:103E2000FCF71FFC0190FFE7029841F23021C2F23B
:103E30000001C1F88C000198C1F89000FFE706B0BE
:103E400080BD00BF00BF00BF0000000000408F40E9
:103E500080B586B005900491059820B1FFE70498DD
:103E6000052801D8FFE7C8E005984078052805D166
:103E7000FFE7059800781C2801D0FFE7BDE0059812
:103E8000817840F6E810C2F2000080F847100599EA
:103E9000C97880F848100599097980F84910059982
:103EA000497980F84A100021ADF80E10ADF80C10D9
:103EB00090F847000006002824D5FFE740F6E810F8
:103EC000C2F2000090F8471090F8480040EA012044
:103ED0004042ADF80E00BDF80E004042FCF74CFB2E
:103EE00041EC100B9FED461B53EC112B51EC100BCA
:103EF000FCF79DFA41EC100B51EC100BFCF7B1FBF9
:103F0000029021E040F6E810C2F2000090F847105D
:103F100090F8480040EA0120ADF80E00BDF80E0010
:103F2000FCF72AFB41EC100B9FED351B53EC112BDA
:103F300051EC100BFCF77BFA41EC100B51EC100B21
:103F4000FCF78FFB0290FFE740F6E810C2F200009A
:103F500090F849000006002824D5FFE740F6E81055
:103F6000C2F2000090F8491090F84A0040EA01209F
:103F70004042ADF80C00BDF80C004042FCF7FCFAE2
:103F800041EC100B9FED1E1B53EC112B51EC100B51
:103F9000FCF74DFA41EC100B51EC100BFCF761FBF8
:103FA000019021E040F6E810C2F2000090F84910BC
:103FB00090F84A0040EA0120ADF80C00BDF80C0072
:103FC000FCF7DAFA41EC100B9FED0D1B53EC112BB3
:103FD00051EC100BFCF72BFA41EC100B51EC100BD1
:103FE000FCF73FFB0190FFE7029841F23021C2F25B
:103FF0000001486201988862FFE706B080BD00BFFB
:104000000000000000408F4080B586B0059004910C
:10401000059820B1FFE70498052801D8FFE7C8E01C
:1040200005984078092805D1FFE7059800781C28F5
:1040300001D0FFE7BDE00598817840F6E810C2F2B4
:10404000000080F859100599C97880F85A10059930
:10405000097980F85B100599497980F85C10002196
:10406000ADF80E10ADF80C1090F8590000060028BD
:1040700024D5FFE740F6E810C2F2000090F859108E
:1040800090F85A0040EA01204042ADF80E00BDF819
:104090000E004042FCF770FA41EC100B9FED461BFE
:1040A00053EC112B51EC100BFCF7C1F941EC100B48
:1040B00051EC100BFCF7D5FA029021E040F6E81025
:1040C000C2F2000090F8591090F85A0040EA01201E
:1040D000ADF80E00BDF80E00FCF74EFA41EC100BE7
:1040E0009FED351B53EC112B51EC100BFCF79FF996
:1040F00041EC100B51EC100BFCF7B3FA0290FFE708
:1041000040F6E810C2F2000090F85B0000060028BC
:1041100024D5FFE740F6E810C2F2000090F85B10EB
:1041200090F85C0040EA01204042ADF80C00BDF878
:104130000C004042FCF720FA41EC100B9FED1E1BD7
:1041400053EC112B51EC100BFCF771F941EC100BF7
:1041500051EC100BFCF785FA019021E040F6E810D5
:10416000C2F2000090F85B1090F85C0040EA012079
:10417000ADF80C00BDF80C00FCF7FEF941EC100B9B
:104180009FED0D1B53EC112B51EC100BFCF74FF96D
:1041900041EC100B51EC100BFCF763FA0190FFE7B8
:1041A000029841F23021C2F2000148660198886607
:1041B000FFE706B080BD00BF0000000000005940CE
:1041C00080B586B005900491059820B1FFE704986A
:1041D000052801D8FFE7CAE0059840780C2805D1EA
:1041E000FFE7059800781C2801D0FFE7BFE005989D
:1041F000817840F6E810C2F2000080F86710059957
:10420000C97880F868100599097980F869100599CE
:10421000497980F86A100021ADF80E10ADF80C1045
:1042200090F867000006002824D5FFE740F6E81064
:10423000C2F2000090F8671090F8680040EA012090
:104240004042ADF80E00BDF80E004042FCF794F974
:1042500041EC100B9FED481B53EC112B51EC100B54
:10426000FCF7E5F841EC100B51EC100BFCF7F9F9F9
:10427000029021E040F6E810C2F2000090F86710CA
:1042800090F8680040EA0120ADF80E00BDF80E007D
:10429000FCF772F941EC100B9FED371B53EC112B1F
:1042A00051EC100BFCF7C3F841EC100B51EC100B68
:1042B000FCF7D7F90290FFE740F6E810C2F20000E1
:1042C00090F869000006002824D5FFE740F6E810C2
:1042D000C2F2000090F8691090F86A0040EA0120EC
:1042E0004042ADF80C00BDF80C004042FCF744F928
:1042F00041EC100B9FED201B53EC112B51EC100BDC
:10430000FCF795F841EC100B51EC100BFCF7A9F9F8
:10431000019021E040F6E810C2F2000090F8691028
:1043200090F86A0040EA0120ADF80C00BDF80C00DE
:10433000FCF722F941EC100B9FED0F1B53EC112BF6
:1043400051EC100BFCF773F841EC100B51EC100B17
:10435000FCF787F90190FFE7029841F23021C2F2A1
:104360000001C1F894000198C1F89800FFE706B079
:1043700080BD00BF00BF00BF00000000000059402A
:1043800080B586B005900491059820B1FFE70498A8
:10439000052801D8FFE7C8E005984078062805D130
:1043A000FFE7059800781C2801D0FFE7BDE00598DD
:1043B000817840F6E810C2F2000080F84B100599B1
:1043C000C97880F84C100599097980F84D10059945
:1043D000497980F84E100021ADF80E10ADF80C10A0
:1043E00090F84B000006002824D5FFE740F6E810BF
:1043F000C2F2000090F84B1090F84C0040EA012007
:104400004042ADF80E00BDF80E004042FCF7B4F893
:1044100041EC100B9FED461B53EC112B51EC100B94
:10442000FCF705F841EC100B51EC100BFCF719F9F7
:10443000029021E040F6E810C2F2000090F84B1024
:1044400090F84C0040EA0120ADF80E00BDF80E00D7
:10445000FCF792F841EC100B9FED351B53EC112B40
:1044600051EC100BFBF7E3FF41EC100B51EC100B80
:10447000FCF7F7F80290FFE740F6E810C2F2000000
:1044800090F84D000006002824D5FFE740F6E8101C
:10449000C2F2000090F84D1090F84E0040EA012062
:1044A0004042ADF80C00BDF80C004042FCF764F847
:1044B00041EC100B9FED1E1B53EC112B51EC100B1C
:1044C000FBF7B5FF41EC100B51EC100BFCF7C9F8F2
:1044D000019021E040F6E810C2F2000090F84D1083
:1044E00090F84E0040EA0120ADF80C00BDF80C0039
:1044F000FCF742F841EC100B9FED0D1B53EC112B18
:1045000051EC100BFBF793FF41EC100B51EC100B2F
:10451000FCF7A7F80190FFE7029841F23021C2F2C0
:104520000001C86201980863FFE706B080BD00BFC4
:10453000000000000000594080B588B00790069147
:10454000059200200490ADF80E0002908DF807004F
:104550000090079818B1FFE7069808B9FFE72EE02A
:1045600007980078012801D0FFE728E00798406805
:1045700002900798007A8DF807009DF80700C0F5B3
:10458000807000900098B0F5807F04D9FFE74FF469
:1045900080700090FFE70298A8280FD1FFE79DF8F0
:1045A000070044F60001C0F606010843049006988F
:1045B0000499BDF8002001F095FFFFE7FFE708B080
:1045C00080BD000080B584B003900291002001906E
:1045D000039820B1FFE70298012801D8FFE754E0D3
:1045E000039840780190019800900D284BD80099CD
:1045F000DFE801F0070C1116171C21262B30353A85
:104600003F440398029907F01FFD3DE0039802998B
:1046100007F02AFA38E003980299FEF7FFFA33E030
:1046200032E003980299FEF74BFB2DE003980299C4
:10463000FFF70EFC28E003980299FFF7A1FE23E0A4
:1046400003980299FFF710F91EE003980299FFF70B
:1046500043FA19E003980299FFF7D6FC14E0039897
:104660000299FEF78DFE0FE003980299FFF710FB09
:104670000AE003980299FFF7A3FD05E00398029969
:10468000FEF7B6FF00E0FFE7FFE704B080BD0000E3
:1046900083B08DF80B00019100929DF80B00272844
:1046A00001D0FFE707E0019808B9FFE703E00199AF
:1046B00078200870FFE703B07047000080B586B02F
:1046C0004FF090400290012104914FF4007200924B
:1046D00003F0C0F9029804994FF48062059203F048
:1046E000B9F9009B0298049A0221019103F09AFA09
:1046F000009B0298049A0021039103F0F7FA0199B4
:104700000298049A059B03F08DFA02980399049A83
:10471000059B03F0EBFA06B080BD000080B582B0C7
:1047200043F60000C4F2010001900CF00FFB019869
:10473000002100910CF0F8FB009901980CF0D0FBDF
:10474000009901980CF0A8FB01984FF4E1310CF0AE
:104750008DFA019804210CF0B3FB019808210CF0AC
:10476000D3FB01980CF01CFB019807210CF052FBC5
:10477000FFF7A4FF02B080BD80B582B00190019820
:1047800041F2A801C2F200010091096800EB81200A
:1047900002F0FEF8009A41F20820C2F20000006820
:1047A0000199126801EB82214FF4806201F0C2FE90
:1047B000009908680130086041F2AC01C2F20001C2
:1047C000086800F580600860012002B080BD00002C
:1047D00080B58AB008900791069200200590049059
:1047E0000390079818B1FFE7069820B9FFE700206B
:1047F0008DF8270073E041F20420C2F20000006847
:1048000006990844B0F5806F2ED8FFE741F20820E2
:10481000C2F20000006841F20421C2F200010291DC
:10482000096808440799069AFBF7B0FC0298069AB3
:104830000168114401600068B0F5806F13D1FFE793
:104840000898FFF799FF41F20820C2F200000068C3
:104850004FF48061FBF7B3FC41F20421C2F2000186
:1048600000200860FFE736E041F20820C2F20000B5
:104870000090006841F20421C2F2000101910A682F
:1048800010440799C2F58062FBF780FC019800682C
:10489000C0F5806005900898FFF76EFF00980068EB
:1048A0004FF48061FBF78BFC0098019900220A60AD
:1048B000069A059BD21A0492006809680844079971
:1048C000059A1144049AFBF761FC0199049A08685F
:1048D00010440860FFE701208DF82700FFE79DF8EE
:1048E00027000AB080BD000080B584B0039000208E
:1048F0000290019041F20420C2F20000006808B961
:10490000FFE77EE00AF064FB08B9FFE779E041F2D7
:104910000420C2F20000006800F007000190019836
:1049200058B3FFE741F20420C2F200000068019989
:10493000401A0830B0F5806F01D9FFE761E0002030
:104940000290FFE702980199C1F10801884213D251
:10495000FFE741F20820C2F20000016841F204239F
:10496000C2F200031A68501C186000208854FFE748
:10497000029801300290E5E7FFE741F20420C2F21D
:1049800000000068E8B1FFE7039841F2A801C2F215
:1049900000010091096800EB812001F0F9FF009A05
:1049A00041F20820C2F2000000680399126801EB8E
:1049B000822141F20422C2F20002128801F0BAFD03
:1049C000FFE741F20420C2F20000036841F2AC02AA
:1049D000C2F200021168194411600068B0F5806FDE
:1049E0000ED1FFE741F2A801C2F2000108680130D0
:1049F000086041F20421C2F2000100200860FFE7D4
:104A0000FFE704B080BD000082B08DF807008DF88C
:104A100006109DF807109DF8060040EA0120ADF849
:104A200004000020ADF802009DF8070000060028F1
:104A300005D5FFE7BDF80400ADF8020004E0BDF8BD
:104A40000400ADF80200FFE7BDF9020002B07047B4
:104A500080B584B0039002910398013001900198D1
:104A6000013002F0F1F9ADF80200BDF80200FBF7E9
:104A700083FD41EC100B9FED401B53EC112B51ECCF
:104A8000100BFBF762FC41EC100B51EC100BFBF729
:104A90009DFD8DF8010001980078E8B9FFE79DF8C9
:104AA00001001F280FDCFFE79DF8030040F6E81126
:104AB000C2F200010872BDF8020048729DF80100C0
:104AC00000F04EFD07E040F6E811C2F200010020C0
:104AD00008724872FFE7FFE701980078012821D1AA
:104AE000FFE79DF801003F2811DCFFE79DF801007A
:104AF00000F0AAFB9DF8030040F6E811C2F20001A5
:104B000081F82000BDF8020081F8210009E040F69C
:104B1000E811C2F20001002081F8200081F8210094
:104B2000FFE7FFE701980078022821D1FFE79DF811
:104B300001003F2811DCFFE79DF8010000F056FC62
:104B40009DF8030040F6E811C2F2000181F834003C
:104B5000BDF8020081F8350009E040F6E811C2F224
:104B60000001002081F8340081F83500FFE7FFE7FD
:104B700004B080BD00BF00BF9A9999999999B93F37
:104B800043F21001C4F202014FF0FF30086043F21B
:104B90000001C4F20201086043F20401C4F2020100
:104BA0000020086043F21401C4F2020141F6B7503C
:104BB000C0F2C140086043F20801C4F202010120C2
:104BC0000860704781B0009043F20801C4F202010E
:104BD000086820F060000860009A086810430860C8
:104BE00001B0704781B0009043F20801C4F20201A5
:104BF000086820F018000860009A086810430860F0
:104C000001B0704743F20801C4F20201086820F0C5
:104C100080000860086840F080000860704700006D
:104C200080B500F0ADF800F009F980BD86B00590C0
:104C30008DF813100392ADF80A309DF81300E8B90F
:104C4000FFE70398019040B1FFE70198012809D0E0
:104C5000FFE7019802280AD00EE0BDF80A00059986
:104C600088600AE0BDF80A000599C86005E0BDF853
:104C70000A000599086100E0FFE71CE00398009036
:104C800040B1FFE70098012809D0FFE7009802280B
:104C90000AD00EE0BDF80A00059948610AE0BDF8A7
:104CA0000A000599886105E0BDF80A000599C86108
:104CB00000E0FFE7FFE706B07047000080B586B070
:104CC00005900598049047F20041C4F20001884223
:104CD00018D0FFE704984CF60041C4F20001884266
:104CE00019D0FFE704984DF20001C4F20001884298
:104CF0001AD0FFE704984DF20041C4F20001884247
:104D00001BD023E040F21D40039007F0A3FE039860
:104D100007F08CFE1BE040F21F40029007F09AFE65
:104D2000029807F083FE12E040F21A40019007F06B
:104D300091FE019807F07AFE09E040F21B400090D6
:104D400007F088FE009807F071FE00E0FFE706B06C
:104D500080BD000082B001908DF803109DF8030023
:104D600030B9FFE70199086840F00100086005E0EC
:104D70000199086840F480300860FFE702B070478E
:104D800080B586B04FF09040039003210491022239
:104D9000402302F047FF0398049900220592102354
:104DA000009302F03FFF009B0499059A40F6000033
:104DB000C4F60000019002F035FF03980499059AAB
:104DC0002023029302F02EFF0198029B0499059A7A
:104DD00002F028FF03980499059A802302F022FF2D
:104DE00006B080BD82B001908DF803109DF80300DD
:104DF00030B9FFE70199086840F00200086005E05B
:104E00000199086840F400300860FFE702B070477D
:104E100082B001908DF803109DF8030030B9FFE7D0
:104E20000199086820F00200086005E0019908680F
:104E300020F400300860FFE702B0704780B586B00C
:104E40004CF60040C4F200000190FFF737FF0198D4
:104E5000002105913822039200F09EF801980599EF
:104E600000F084F801980599FFF7D2FF01980599A1
:104E7000FFF770FF47F20040C4F200000090FFF718
:104E80001DFF0098039A059900F086F8009805998F
:104E9000FFF7A8FF00980599FFF75CFF00980599B8
:104EA00000F04EF80098039A0121029100F074F886
:104EB00000980299FFF796FF00980299FFF74AFFC2
:104EC0000098029900F03CF801980299039A00F0CA
:104ED00063F801980299FFF785FF01980299FFF79F
:104EE00039FF0198029900F02BF84DF20000C4F24E
:104EF00000000490FFF7E2FE0299039A049800F084
:104F00004BF802990498FFF76DFF02990498FFF798
:104F100021FF0299049800F013F8039A0498059968
:104F200000F03AF804980599FFF75CFF049805999A
:104F3000FFF710FF0498059900F002F806B080BD55
:104F400082B001908DF803109DF8030030B9FFE79F
:104F50000199486840F00100486005E001994868FF
:104F600040F002004860FFE702B0704782B0019055
:104F70008DF803109DF8030030B9FFE70199086828
:104F800020F00400086005E00199086820F4802002
:104F90000860FFE702B0704783B002908DF80710F9
:104FA00000929DF8070060B9FFE70299086844F293
:104FB000380290430860009A02990868104308601C
:104FC0000EE0029908684FF6FF72CBF6C7721040E8
:104FD0000860009A0299086840EA02400860FFE70A
:104FE00003B0704780B59AB08DF86700002002903A
:104FF00004901290119010900F90089007900690D6
:1050000005900FAA0392039801210160039B0320DE
:105010005860039B9860039B187B40F0080018734E
:10502000039B187B40F010001873039B987B40F0A3
:1050300008009873039B987B40F0100098739DF8CC
:1050400067C0039BD87B0CF0010C00F0DF0040EA46
:105050004C10D8736B460920186005AB0846FCF766
:1050600077F80490049808B1FFE7FFE7002001906B
:105070001290119010900F90089007900690059054
:105080000399086069460920086001210FAA05AB51
:105090000846FCF75DF80490049808B1FFE7FFE7C5
:1050A00001200F900220109069460920086000211D
:1050B0000FAA05AB0846FCF74BF80490049808B11A
:1050C000FFE7FFE71AB080BD80B582B08DF807001A
:1050D0009DF8070001F06AFF02B080BD80B582B084
:1050E0008DED010A9DED010A02F05AF802B080BD73
:1050F00080B502F02BFA08F079F880BD80B582B057
:105100000190019802F0A0F802B080BD80B582B095
:105110000190019802F0F8F802B080BD81B00090D3
:10512000009808B9FFE707E040F6CE10C2F2000091
:10513000008A00990880FFE701B0704780B582B00F
:105140000190019802F050F902B080BD80B582B0A4
:105150000020ADF8060001200521FDF7CFFA014639
:10516000BDF806000843ADF80600BDF8060000F0E3
:1051700021F802B080BD000080B582B08DED010A3B
:105180009DED010A08F044F802B080BD80B582B000
:10519000ADF80600BDF8060002F0EEFA02B080BDE0
:1051A00080B582B0ADF80600BDF8060002F00CFB39
:1051B00002B080BD81B0ADF80200BDF8020040F63B
:1051C000CE11C2F20001088201B0704780B582B0F2
:1051D0008DF807009DF8070002F032FB02B080BD99
:1051E00080B582B0ADF80600BDF8060002F048FBBD
:1051F00002B080BD80B582B08DF807009DF8070031
:1052000002F050FB02B080BD80B582B08DF807007F
:105210009DF8070002F05AFB02B080BD80B582B055
:10522000ADF80600BDF8060002F064FB02B080BDD8
:1052300080B582B08DED010A9DED010A012008F0D4
:105240003FF902B080BD000080B582B08DF8070044
:105250009DF8070002F060FB02B080BD80B582B00F
:10526000ADF806009DF8060002F078FB02B080BDA4
:1052700080B582B08DF807009DF80700012804DB97
:10528000FFE7002002F08CFB03E0012002F088FB26
:10529000FFE702B080BD000080B582B08DF8070046
:1052A0009DF807000BF0D2FE02B080BD80B582B041
:1052B0008DED010A9DED010A0BF026FF02B080BDC5
:1052C00080B50CF09BF880BD80B582B0019001984C
:1052D0000BF07AFF02B080BD80B582B001900198DA
:1052E00008B9FFE703E001980BF0C6FFFFE702B043
:1052F00080BD000081B00090009808B9FFE707E08A
:1053000040F6CE10C2F20000008B00990880FFE743
:1053100001B0704780B582B00190019808B9FFE7ED
:1053200003E001980BF0D8FFFFE702B080BD00005A
:1053300080B582B00021ADF806100220FDF7DEF93D
:105340000146BDF806000843ADF80600BDF80600AA
:1053500000F016F802B080BD80B582B0ADF806004E
:10536000BDF806000CF08AF802B080BD80B582B0AE
:10537000ADF80600BDF806000CF0AEF802B080BD36
:1053800081B0ADF80200BDF8020040F6CE11C2F2C5
:105390000001088301B0704780B582B08DF8070026
:1053A0009DF807000CF0D8F802B080BD80B582B03F
:1053B0008DF807009DF807000CF0F6F802B080BDEC
:1053C00080B582B0ADF80600BDF806000CF000F91B
:1053D00002B080BD80B582B08DED010A9DED010A5D
:1053E000022008F06DF802B080BD000080B582B0E8
:1053F0008DF807009DF807000CF0FCF802B080BDA6
:1054000080B582B08DF807009DF80700012804DB05
:10541000FFE700200CF002F903E001200CF0FEF899
:10542000FFE702B080BD000081B08DF8030001B03D
:105430007047000081B08DED000A01B07047000098
:1054400080B500F0ABFB08F019F880BD81B000908A
:1054500001B0704781B00020ADF80200BDF8020035
:1054600001B0704781B0009001B0704781B00090EA
:10547000009808B9FFE707E040F6CE10C2F200003E
:10548000008900990880FFE701B0704781B0009063
:1054900001B0704780B582B00020ADF806000C2145
:1054A000FDF72CF90146BDF806000843ADF80600EB
:1054B000BDF8060000F018F802B080BD80B582B0DB
:1054C0008DED010A9DED010A07F0DAFE02B080BD04
:1054D00081B0ADF8020001B07047000081B0ADF8B6
:1054E000020001B07047000081B0ADF80200BDF8C5
:1054F000020040F6CE11C2F20001088101B07047EF
:1055000081B08DF8030001B07047000081B0ADF8A4
:10551000020001B07047000081B08DF8030001B0B7
:105520007047000081B08DF8030001B070470000A3
:1055300081B0ADF8020001B07047000080B582B0C4
:105540008DED010A9DED010A002007F0B9FF02B0C0
:1055500080BD000081B08DED000A01B070470000F1
:1055600081B08DF8030001B07047000081B0ADF844
:10557000020001B07047000081B08DF8030001B057
:10558000704700000000000080B586B08DF817005D
:10559000049103920020ADF80A0001909DF81700D5
:1055A000292801D0FFE71EE0FFF754FFADF80A00FD
:1055B000BDF80A00FAF7E0FF41EC100B9FED0C1B61
:1055C00053EC112B51EC100BFAF7BFFE41EC100B12
:1055D00051EC100BFBF745F801900498BDF80A1048
:1055E00007F09AFDFFE706B080BD00BF00BF00BF17
:1055F000000000000000443F84B0039002910020AE
:105600008DF80700039820B1FFE70298022801D81F
:10561000FFE733E0039801789DF8070008438DF811
:1056200007009DF80700122801D0FFE726E0039845
:1056300040780146009140B1FFE7009801280CD066
:10564000FFE70098022810D017E00398807841F215
:105650007001C2F20001487010E00398807841F2B6
:105660007001C2F20001887008E00398807841F26E
:105670007001C2F20001C87000E0FFE704B070479B
:1056800080B541F27000C2F200004078012810D0CD
:10569000FFE741F27000C2F200008078012808D0D4
:1056A000FFE741F27000C2F20000C078012815D176
:1056B000FFE741F27000C2F200004069B0F57A7F66
:1056C0000BD9FFE741F27001C2F2000100204861EE
:1056D00009F0C0FF0AF096FAFFE7FFE780BD00007F
:1056E00080B586B003AA01928DF817008DF81610C8
:1056F0009DF8160001284BD1FFE79DF81700A8B9C7
:10570000FFE7019841F23021C2F20001498C00EE1E
:10571000101AB8EE400A80ED010A90ED010AFFF779
:1057200089FE9DF81600FFF77FFE30E09DF8170018
:10573000012816D1FFE7019841F23021C2F20001A1
:10574000B1F85A1000EE101AB8EE400A80ED000AC7
:1057500090ED000AFFF7C2FC9DF81600FFF7B4FCBD
:1057600014E041F23020C2F20000B0F88A00ADF837
:105770000A00BDF80A0000EE100AB8EE400AFFF772
:1057800095FD9DF81600FFF787FDFFE7FFE72DE089
:105790009DF8170058B9FFE70020FFF745FE41F2DA
:1057A0003020C2F200008088FFF792FE1DE09DF8D5
:1057B000170001280CD1FFE70020FFF785FC41F21C
:1057C0003020C2F20000B0F84400FFF7DFFC0BE02D
:1057D0000020FFF761FD41F23020C2F20000B0F876
:1057E0007C00FFF7B9FDFFE7FFE7FFE706B080BDEC
:1057F00040F66020C2F20000006840B1FFE740F6CA
:105800006021C2F20001086801380860FFE77047B4
:1058100081B08DF803009DF8030000EB80020821A1
:10582000C4F2020151F8220020F0010041F82200E8
:1058300001B0704781B08DF803009DF8030000EBC4
:1058400080020821C4F2020151F8220040F0010058
:1058500041F8220001B0704781B08DF803009DF837
:10586000030000EB80020821C4F2020151F822007B
:1058700040F0200041F8220001B0704781B08DF85F
:1058800003009DF8030000EB80020821C4F202012E
:1058900051F8220020F0010041F822009DF8030099
:1058A00000EB8002002041F822009DF8031001EB7C
:1058B00081020C21C4F2020141F822009DF803107C
:1058C00001EB81021021C4F2020141F822009DF88F
:1058D000031001EB81021421C4F2020141F82200FD
:1058E0009DF8030081000F2000FA01F20421C4F2A8
:1058F000020108681043086001B0704780B584B0A9
:105900008DF80F0002919DF80F00FFF781FF0298BC
:1059100000689DF80F1001EB81021021C4F2020112
:1059200041F82200029880689DF80F1001EB810277
:105930001421C4F2020141F822000298008A9DF865
:105940000F1001EB81020C21C4F2020141F8220088
:105950009DF80F0000EB80000821C4F2020151F80D
:1059600020000190019820F47C500190029A506828
:10597000D36852691843024301981043019001987B
:105980009DF80F2002EB820241F822000298007E6F
:1059900001280ED1FFE79DF80F0000EB80020821DF
:1059A000C4F2020151F8220040F0400041F8220008
:1059B0000DE09DF80F0000EB80020821C4F2020107
:1059C00051F8220020F0400041F82200FFE7029841
:1059D000407E01280ED1FFE79DF80F0000EB80020A
:1059E0000821C4F2020151F8220040F0800041F881
:1059F00022000DE09DF80F0000EB80020821C4F2A8
:105A0000020151F8220020F0800041F82200FFE757
:105A10000298807E70B9FFE79DF80F0000EB8002CE
:105A20000821C4F2020151F8220020F0100041F8D0
:105A300022000DE09DF80F0000EB80020821C4F267
:105A4000020151F8220040F0100041F82200FFE767
:105A500004B080BD80B5B8B037903691359204203F
:105A60000290029835990844C82803D8FFE7369871
:105A700008B9FFE712E0379903A8019007F060FB2F
:105A8000019804303699359AFAF780FB01993598D8
:105A9000029A0244AE2003F02DF9FFE738B080BD32
:105AA00080B584B00390029100200190039808B95A
:105AB000FFE713E003980078E82801D0FFE70DE046
:105AC000039840780190019820B1FFE70120FFF78B
:105AD00089FA03E00020FFF785FAFFE704B080BDF4
