:020000040800F2
:1000000008150020690100089D0A0008790A000807
:100010007501000877010008790100080000000060
:10002000000000000000000000000000A50A000819
:100030007D01000800000000A10A0008FD0A000878
:100040008301000883010008830100088301000880
:1000500083010008310A00088301000883010008B9
:1000600000000000830100088301000883010008EC
:100070008301000883010008830100088301000850
:10008000830100088301000883010008510C000867
:100090008301000883010008830100088301000830
:1000A000850A00088301000883010008890C000804
:1000B00083010008000000000000000000000000B4
:1000C00083010008000000007D0A0008950A00086E
:1000D0008D0A0008000000000000000083010008F5
:1000E0008301000800000000000000000000000084
:1000F0000000000000000000000000000000000000
:1001000083010008000000000000000083010008D7
:1001100000000000000000000000000000000000DF
:1001200000000000000000000000000000000000CF
:1001300000000000000000000000000000000000BF
:1001400000000000000000000000000000000000AF
:1001500083010008DFF80CD000F0BEFB0048004728
:10016000794E0008081500200648804706480047D9
:10017000FEE7FEE7FEE7FEE7FEE7FEE7FEE7FEE757
:10018000FEE7FEE7150B00085501000840EA0103F1
:100190009B0703D009E008C9121F08C0042AFAD23D
:1001A00003E011F8013B00F8013B521EF9D2704701
:1001B000D2B201E000F8012B491EFBD270470022A9
:1001C000F6E710B513460A4604461946FFF7F0FF56
:1001D000204610BD421C10F8011B0029FBD1801ADB
:1001E000704730B504460020034600E05B1C934294
:1001F00003D2E05CCD5C401BF8D030BD2DE9FE4F52
:10020000804681EA0300C00F0C46009021F00041B7
:1002100023F00045B8EB0200A94105D24046214633
:1002200090461C460B46024623F00040104347D040
:10023000270DC7F30A00C3F30A510290401A019038
:1002400040286BDAC3F3130040F4801B00989246F9
:1002500020B10023D2EB030A63EB0B0B0198594644
:10026000C0F14002504600F02BFA06460D465046BB
:100270005946019A00F043FA10EB0800614100244E
:1002800087EA115284EAE7731A4340D0009A62B3B6
:10029000019A012A4FEA075215DC001B61EB0201AB
:1002A0004FF0004202EA0752CDE90042001C41F53E
:1002B000801132462B4600F07AFA03B0BDE8F08F89
:1002C00040462146F9E7001B61EB0201001C41F5A5
:1002D000801300185B412018A2F5001747EB0301BB
:1002E00040EAD570B6196D4111E06D084FEA360647
:1002F00045EAC0754FEA0752001B61EB0201001C82
:1003000041F5801149084FEA300000195141324649
:100310002B4603B0BDE8F04F00F03ABA0098012236
:1003200040000023D0EB020263EBE073009821460B
:100330004FEAE074B8EB000061EB0401E9E783F0F9
:1003400000435BE781F0004158E72DE9FE4F81EA69
:10035000030404F0004421F0004100944FF0000B2E
:1003600023F0004350EA01045ED052EA03045BD05C
:10037000C3F30A54C1F30A552C44A4F2F334019494
:10038000A0FB0254C1F3130141F48011C3F3130322
:1003900043F4801301FB024400FB034E840A970AD6
:1003A00044EA815447EA8357A4FB076802958D0A03
:1003B00005FB07854FEA932C04FB0C542705029D8F
:1003C0004FEA065847EA1637B5EB08056EEB070CFF
:1003D000870E920E47EA811742EA8312A7FB0201B9
:1003E000B6EB0B0164EB00042B0D43EA0C335E18F3
:1003F00044EB1C50DA465146E7FB0201C5F31304F7
:100400004FEA0B3343EA14534FEA0432019C43EAA8
:100410000603A4F10C040294009CCDE900B400F0A2
:10042000C6F903B0BDE8F08F00200146F9E72DE9D9
:10043000F04D81EA030404F0004B21F0004514461E
:100440004FF0000A23F0004150EA050220D054EAA0
:1004500001021DD0C5F30A570246C5F31303C1F3C9
:100460001300C1F30A5640F4801543F48013A7EB40
:100470000608101BD64608F2FD3873EB050002D3C0
:1004800008F1010801E092185B41B8F1000F03DAAE
:1004900000200146BDE8F08D00204FF48011064693
:1004A00084460EE0171B73EB050705D3121B63EBA5
:1004B000050306434CEA010C49084FEA3000921844
:1004C0005B4150EA0107EDD152EA030012D082EA03
:1004D000040083EA0501084305D0101BAB4106D296
:1004E0000122002306E000224FF0004302E06FF0FB
:1004F000010253101AEB06004CEB085110EB0A00F6
:1005000041EB0B01BDE8F04D00F042B930B5041EDF
:1005100071F1000404DB4FF00044404264EB010140
:10052000141E73F1000405DB1C464FF000435242D9
:1005300063EB0403101A8B4101D3012030BD00206E
:1005400030BD0EB5C10F80EAE0700844CA07002133
:1005500040F233438DE80E000A460B4600F027F9BF
:1005600003B000BD70B5C1F30A5201F0004500248C
:10057000C1F3130140F2FF3341F480119A4201DAD2
:10058000002070BD40F233439A42A2F2334203DCB2
:10059000524200F0A4F800E090402C43F1D04042D9
:1005A00070BDC1F30A5210B5C1F3130140F2FF331D
:1005B00041F480119A4201DA002010BD40F2334329
:1005C0009A42A2F2334203DC524200F088F810BD96
:1005D000904010BD00F0004230F000400AD0C10D44
:1005E00001F56071C0F3160042EA0151C2084007EC
:1005F0001143704700200146704701F0004330B4BA
:1006000021F0004150EA010206D00A0DA2F5607205
:10061000C1F31301002A02DC30BC00207047440FF4
:1006200044EAC104C100E01830BC00EBC25000F045
:1006300078B830B50B46014600202022012409E09D
:1006400021FA02F59D4205D303FA02F5491B04FA8B
:1006500002F52844151EA2F10102F1DC30BD2DE99E
:10066000F05F0546002092469B4688460646814636
:1006700040241BE0284641464746224600F02FF81A
:1006800053465A46C01A914110D311461846224685
:1006900000F016F82D1A67EB01084F46224601209C
:1006A000002100F00DF817EB00094E41201EA4F1C7
:1006B0000104DFDC484631462A464346BDE8F09F48
:1006C000202A04DB203A00FA02F100207047914012
:1006D000C2F1200320FA03F3194390407047202A07
:1006E00004DB203A21FA02F00021704721FA02F3DC
:1006F000D040C2F120029140084319467047202A99
:1007000006DBCB17203A41FA02F043EAE07306E039
:1007100041FA02F3D040C2F1200291400843194649
:1007200070470029A8BF7047401C490008BF20F04F
:100730000100704710B4B0FA80FC00FA0CF050EAE7
:10074000010404BF10BC704749B1CCF1200421FA68
:1007500004F411FA0CF118BF012121430843A3EB63
:100760000C01CB1D4FEA00614FEA102042BF002070
:1007700010BC704700EBC35010440029A4BF10BC4C
:100780007047401C490008BF20F0010010BC7047B2
:1007900010B5141E73F1000408DA401C41F1000189
:1007A00092185B411A4301D120F0010010BD2DE9E0
:1007B000F04D92469B4611B1B1FA81F202E0B0FAD7
:1007C00080F220329046FFF77BFF04460F4640EA56
:1007D0000A0041EA0B0153465A46084313D011461A
:1007E00053EA010019D0C8F140025046FFF777FFE5
:1007F00005460E46504659464246FFF761FF0843FC
:1008000005D0012004E020463946BDE8F08D0020E7
:10081000054346EAE0762C4337430A986305E40A29
:10082000A0EB08000022FD0A44EA47540A3002D532
:1008300000200146E9E7010510196941DDE9084595
:1008400000196941BDE8F04DA2E770B521F0004301
:1008500003430CD0C1F30A550024D5EB040564EB27
:100860000403D617AD1AB34102DB0020014670BD68
:10087000201841EB025170BDC1F30A52C1F31301BC
:1008800040F2FF3341F480119A4202DA002001461F
:10089000704740F233439A42A2F2334202DC5242A2
:1008A000FFF71DBFFFF70CBF30B5041E71F1000448
:1008B00004DB4FF00044404264EB0101141E73F16D
:1008C000000405DB1C464FF00043524263EB040377
:1008D000994208BF904230BD064C074D06E0E068E3
:1008E00040F0010394E8070098471034AC42F6D377
:1008F000FFF734FC50C0000870C000082DE9F04D2F
:1009000000231A461B1A8A4103DB00200146BDE87A
:10091000F08DC1F30A52C1F3130141F480154FF079
:10092000000BD10702D100186D41521E002704466A
:1009300040F2FF11384601EB620A3E46804602460D
:1009400000204FF48011FFF7CAFEC2197141BB1895
:1009500046EB0100B4EB030C75EB000C04D3E41A76
:1009600065EB000517460E46241908F101006D419C
:1009700080463428E3DDF91946EB0600091BA8413F
:1009800003D24FF0FF32134601E0002213461BEB67
:10099000070046EB0A51BDE8F04DFFF7F9BE000035
:1009A00030B5041E71F1000404DB4FF000444042F6
:1009B00064EB0101141E73F1000405DB1C464FF0CB
:1009C0000043524263EB04038B4208BF824230BDB6
:1009D00070B58D1810F8014B14F0030201D110F816
:1009E000012B231106D110F8013B03E010F8016B35
:1009F00001F8016B521EF9D1ABB110F8012B04F0D4
:100A00000C048A1A0C2C03D0A2EB84129B1C08E065
:100A100010F8014BA2EB0422F8E712F8014B01F8A1
:100A2000014B5B1EF9D5A942D4D3002070BD000054
:100A300080B582B00020ADF80600012001F0B0FEC4
:100A4000B8B1FFE74BF66850C0F6000009F026FA8F
:100A50000C2000F009FC0146BDF806000843ADF883
:100A60000600BDF8060006F083FB012001F08EFEB3
:100A7000FFE702B080BD0000FFE7FEE780B504F0AD
:100A80007FFA80BD80B504F003FB80BD80B506F021
:100A900087FC80BD80B506F00BFD80BD704700006F
:100AA000704700007047000080B582B00090009849
:100AB0000138B0F1807F03D3FFE70120019019E0F6
:100AC000009801384EF21401CEF2000108604FF098
:100AD000FF30032100F03EF94EF21801CEF2000182
:100AE000002008604EF21002CEF2000207211160D1
:100AF0000190FFE7019802B080BD000080B540F68C
:100B00009021C2F2000108680130086001F046FC43
:100B100080BD000080B582B04EF68851CEF2000153
:100B2000086840F47000086041F20001C4F202015C
:100B3000086840F001000860FFE741F20000C4F2DD
:100B4000020000688007002801D4FFE7F5E7FFE70F
:100B500041F20401C4F20201086840F0800008601C
:100B600000200190FFE701984F2805D8FFE7FFE735
:100B7000019801300190F6E741F20401C4F202014C
:100B8000086840F09000086000200190FFE701989D
:100B90004F2805D8FFE7FFE7019801300190F6E7FD
:100BA000FFE741F20403C4F20203186820F00300D7
:100BB000186041F20001C4F2020108684FF6FF72AA
:100BC000CFF6F26210400860186840F20C0CC0F6D4
:100BD000FF0C00EA0C00186018684FF6FF7CCFF29B
:100BE000C07C00EA0C00186008681040086041F200
:100BF0002C01C4F20201086820F00F00086041F2E5
:100C00003001C4F20201086840F2FF12904308600C
:100C1000086820F480300860086820F00040086010
:100C200041F23401C4F20201086820F001000860BA
:100C300041F20801C4F2020100200090086007F0B0
:100C4000AFF800994FF0006004F08CFF02B080BD57
:100C500080B542F20000C4F20000012108F058FA09
:100C600001280FD1FFE742F20000C4F20000012189
:100C700008F044FA40F6A821C2F2000108680130E9
:100C80000860FFE780BD000080B582B043F6000039
:100C9000C4F201000521C0F2057108F06DFF28B310
:100CA000FFE743F60000C4F2010008F0DDFE014654
:100CB00040F6D420C2F2000003885A1C028040F69D
:100CC000B422C2F20002D154008840F28051C2F234
:100CD00000010978884208D1FFE743F60000C4F21A
:100CE0000100052108F024FFFFE7FFE743F60000BD
:100CF000C4F201000721C0F2077108F03DFF30B3D4
:100D0000FFE740F6D422C2F2000201921188481C8B
:100D1000108040F6B420C2F20000415C43F60000AF
:100D2000C4F2010008F0A8FE0198008840F280514A
:100D3000C2F200010978884208D1FFE743F60000BB
:100D4000C4F20100072108F0F3FEFFE7FFE702B05D
:100D500080BD000082B08DF8070000919DF907006A
:100D600000280AD4FFE7009880019DF907104EF291
:100D70000042CEF2000288540BE0009880019DF8FA
:100D8000071001F00F014EF61452CEF20002885403
:100D9000FFE702B07047000042F20841C4F20101CF
:100DA000086840F008000860FFE742F20840C4F21B
:100DB000010000680007002801D5FFE7F5E742F2CF
:100DC0000841C4F20101086840F004000860FFE730
:100DD00042F20840C4F2010000684007002801D533
:100DE000FFE7F5E77047000083B08DF80B00019135
:100DF0009DF80B0001460091012804D0FFE7009800
:100E0000022814D027E042F22C41C4F20101086804
:100E100020F470000860019A0020CFF6F07000EB1B
:100E2000025000F4700208681043086014E042F2B7
:100E30003841C4F20101086820F440100860019AAA
:100E40000020CFF6F07000EB025000F4401208686A
:100E50001043086000E0FFE703B0704780B584B03E
:100E60008DF80F000020029003218DF807100090EC
:100E7000FFE700989DF8072001219140884211DA90
:100E8000FFE79DF80F0000F01BF9014602980844A7
:100E900002904FF4FA6001F0CBFCFFE700980130BC
:100EA0000090E6E79DF807100298C8400290BDF850
:100EB000080004B080BD000081B00090009848B1E7
:100EC000FFE742F20841C4F20101086840F4006003
:100ED000086008E042F20841C4F20101086820F409
:100EE00000600860FFE701B07047000080B58AB07D
:100EF00040F28851C2F20001019100200290486046
:100F0000086001F091FA0199029842F24C42C4F251
:100F1000010203928DF82400059101218DF825101E
:100F20004FF4807104914FF4806106918DF8260092
:100F3000032107914FF40051089103A901F0B4FA7D
:100F4000029801F05FFA029801F04AFA0AB080BDF7
:100F500042F20841C4F20101086840F48070086060
:100F60007047000042F20840C4F201000068C00768
:100F700048B9FFE742F20841C4F20101086840F0B5
:100F800001000860FFE7704781B08DF803008DF81D
:100F900002109DF80200F0B1FFE79DF80300C007C2
:100FA00048B1FFE742F20841C4F20101086840F489
:100FB00080100860FFE79DF803008007002809D52E
:100FC000FFE742F20841C4F20101086840F4004022
:100FD0000860FFE71DE09DF80300C00748B1FFE788
:100FE00042F20841C4F20101086820F48010086050
:100FF000FFE79DF803008007002809D5FFE742F2CC
:101000000841C4F20101086820F400400860FFE7CD
:10101000FFE701B07047000083B08DF80B0001912D
:101020009DF80B0001460091012804D0FFE70098CD
:10103000022810D01FE042F20841C4F20101086802
:101040004FF6FF72CFF6F13210400860019A08683F
:101050001043086010E042F20841C4F20101086840
:1010600048F6FF72CFF6FF5210400860019A0868F8
:101070001043086000E0FFE703B0704781B00090C4
:10108000009A42F20041C4F20101086890430860EE
:1010900001B0704782B0019000208DF8030042F249
:1010A0000040C4F2010000680199084204D0FFE743
:1010B00001208DF80300FFE79DF8030002B07047A0
:1010C00082B08DF805009DF80500043801460091B6
:1010D000082817D80099DFE801F00D15151515152A
:1010E0000905110000208DF804000FE001208DF8A3
:1010F00004000BE002208DF8040007E003208DF8C7
:10110000040003E00020ADF806000AE09DF804109A
:1011100040F28850C2F2000030F81100ADF806002D
:10112000FFE7BDF8060002B07047000080B584B04C
:1011300040F60000C4F60000019003210291002255
:101140000392022303F0B2F801980299039A012353
:1011500003F0ACF80299039A40F20040C4F6000094
:10116000042303F0A3F804B080BD000085B08DF81F
:1011700013008DF81210039242F23841C4F20101BB
:101180000868C0F301508DF80B00086801909DF8C5
:101190000B009DF81320801A00EB8000C0F10F02B5
:1011A0001F2000FA02F20198904301909DF812006E
:1011B0009DF80B209DF81330D21A02EB8202C2F187
:1011C0000F0200FA02F201981043019001980860A2
:1011D0009DF8120009281DD8FFE742F21041C4F221
:1011E0000101086800909DF8120000EB4002072002
:1011F00000FA02F200989043009003989DF81220A4
:1012000002EB420200FA02F20098104300900098AC
:10121000086026E09DF81200122820D8FFE742F26D
:101220000C41C4F20101086800909DF8120000EB27
:101230004000A0F11E02072000FA02F2009890433D
:10124000009003989DF8122002EB42021E3A00FA29
:1012500002F20098104300900098086000E0FFE759
:10126000FFE705B07047000080B588B08DF81F001B
:101270000020069005900C218DF8131003904FF478
:10128000805102910090FFE700989DF8131088426A
:1012900022DAFFE79DF81F0001F0ECFF01904FF408
:1012A000FA7001F0C5FA01980399884203D9FFE763
:1012B00001980390FFE701980299884203D2FFE763
:1012C00001980290FFE70199069808440690FFE70D
:1012D000009801300090D7E706980399401A0299C8
:1012E000401A9DF813100239B0FBF1F00590BDF8DB
:1012F000140008B080BD000083B08DF80B009DF88D
:101300000B0001460091032820D80099DFE801F086
:101310000209101742F23C40C4F20100006801903B
:1013200017E042F24040C4F201000068019010E072
:1013300042F24440C4F201000068019009E042F228
:101340004840C4F201000068019002E000200190D2
:10135000FFE7BDF8040003B07047000080B584B01B
:10136000022002900121039100F030F903994FF41B
:10137000807000F02BF903984FF46021FFF74CFECA
:1013800003990846FFF700FE00200090FFF794FD48
:1013900003980321FFF728FD00980B2105220192F5
:1013A00000F02EF8019A03980A2100F029F8019A1A
:1013B0000298042100F024F802980399FFF714FD25
:1013C00002984FF4E041FFF727FE02980399FFF7D8
:1013D000DBFDFFF7C7FD039806F0E6FCFFF7DCFC3A
:1013E000FFF7B6FD039800F0CFF804B080BD000011
:1013F00080B5FFF79BFEFFF779FDFFF7AFFF80BDDC
:1014000084B08DF80F008DF80E1002929DF80F0039
:1014100005281ED8FFE742F23441C4F201010868F2
:1014200001909DF80F0000EB80021F2000FA02F2ED
:101430000198904301909DF80E009DF80F2002EB5B
:10144000820200FA02F201981043019001980860AC
:101450004EE09DF80F000B2821D8FFE742F2304103
:10146000C4F20101086801909DF80F0000EB8000B4
:10147000A0F11E021F2000FA02F201989043019091
:101480009DF80E009DF80F2002EB82021E3A00FA32
:1014900002F20198104301900198086027E09DF83E
:1014A0000F000F2821D8FFE742F22C41C4F20101BE
:1014B000086801909DF80F0000EB8000A0F13C024D
:1014C0001F2000FA02F20198904301909DF80E004F
:1014D0009DF80F2002EB82023C3A00FA02F20198DA
:1014E000104301900198086000E0FFE7FFE7FFE785
:1014F0009DF80E0009281DD8FFE742F21041C4F202
:101500000101086800909DF80E0000EB40020720E2
:1015100000FA02F200989043009002989DF80E2085
:1015200002EB420200FA02F2009810430090009889
:10153000086026E09DF80E00122820D8FFE742F24E
:101540000C41C4F20101086800909DF80E0000EB08
:101550004000A0F11E02072000FA02F2009890431A
:10156000009002989DF80E2002EB42021E3A00FA0B
:1015700002F20098104300900098086000E0FFE736
:10158000FFE704B07047000081B08DF803009DF8BC
:101590000300C00748B1FFE742F20841C4F201016D
:1015A000086840F480000860FFE79DF803008007AA
:1015B000002809D5FFE742F20841C4F2010108689A
:1015C00040F400100860FFE701B0704782B001905E
:1015D0008DF803109DF8030068B3FFE79DF8050040
:1015E000C00748B1FFE742F20441C4F201010868B4
:1015F00040F480700860FFE79DF805004007002870
:1016000009D5FFE742F20441C4F20101086840F441
:1016100080600860FFE79DF804008007002809D576
:10162000FFE742F20841C4F20101086840F00200FD
:101630000860FFE72CE09DF80500C00748B1FFE710
:1016400042F20441C4F20101086820F4807008608D
:10165000FFE79DF805004007002809D5FFE742F2A3
:101660000441C4F20101086820F480600860FFE7CB
:101670009DF804008007002809D5FFE742F20841E1
:10168000C4F20101086820F002000860FFE7FFE7EC
:1016900002B070470000000080B586B0059004914C
:1016A0000598013001F032FE8DF80F009DF80F0013
:1016B00000EB8000FEF745FF41EC100B9FED1C1B7B
:1016C00053EC112B51EC100BFEF73FFE41EC100BCD
:1016D00051EC100B9FED180B53EC102BFEF78EFD09
:1016E00041EC100B51EC100BFEF787FF02909DF8B8
:1016F0000F0001900298FEF76DFF0A46019942EC37
:10170000100B53EC102B4BF6BA50C0F6000008F04B
:10171000C5FB9DED020A05F0CBFC9DF80F0040F2E1
:101720001441C2F20001887106B080BD00BF00BF45
:101730007B14AE47E17A843F0000000000002E4099
:1017400080B583B0844606980598CDF808C0ADF8FA
:101750000610ADF80420ADF80230ADF80000029894
:1017600040B1FFE7BDF80600012803DBFFE706985C
:1017700008B9FFE736E0BDF80400BDF80210884262
:1017800007DCFFE7BDF80200BDF80610884201DB68
:10179000FFE727E0BDF80400BDF80210884208D139
:1017A000FFE7BDF80400642100FB01F00699086022
:1017B00018E0BDF80400DDF808C03CF81030BDF8B2
:1017C00000105A1A642102FB01F2BDF802E03CF855
:1017D0001EC0A3EB0C0392FBF3F200FB0120069961
:1017E0000860FFE703B080BD80B586B003A8019014
:1017F00000208DF80B000DF1160005F0B7FBBDF8C9
:1018000016004BF6A841C0F600010988884205DAA7
:10181000FFE70020CCF2F010049094E0BDF8160031
:101820004BF6A841C0F60001B1F8B810884205DBBC
:10183000FFE70020CCF2A000049083E000208DF8A8
:101840000B00FFE79DF80B0016287ADCFFE7BDF8D8
:1018500016009DF80B204BF6A841C0F6000131F8A8
:10186000321088420BD1FFE79DF80B104BF6A840D1
:10187000C0F6000000EBC1004068049061E0BDF8D4
:1018800016009DF80B204BF6A841C0F6000131F878
:10189000321088424DDDFFE7BDF816009DF80B20A1
:1018A0004BF6A841C0F6000101EBC201098988424C
:1018B0003FDAFFE701989DF80B204BF6A841C0F6F0
:1018C000000101EBC20292ED030A9DF80B2001EB2F
:1018D000C20292ED011A30EE410A9DF80B2001EB95
:1018E000C20212899DF80B3031F83330D21A01EE62
:1018F000102AB8EEC11A80EE010A80ED000A90EDC0
:10190000000ABDF816209DF80B3031F83330D21A9A
:1019100001EE102AB8EEC12A9DF80B2001EBC2019E
:1019200091ED011A20EE020A30EE010A80ED010A63
:1019300007E0FFE7FFE79DF80B0001308DF80B0093
:1019400080E7FFE7FFE7019890ED010A06B080BD50
:1019500080B584B00020039047F2BC40C4F25A2006
:10196000029043F29C30CBF6DA70019003A801F0AC
:10197000AFFE9DED020A9DED032A9DED011A20EEBA
:10198000020A30EE010A8DED000A0098FEF722FEF1
:1019900041EC100B08F090FC9FED091B53EC112B50
:1019A00051EC100BFEF7D1FC41EC100B51EC100B7D
:1019B000FEF723FE00909DED000A04B080BD00BF3D
:1019C000000000000000244080B586B04FF0904039
:1019D0000290012104914FF40072009202F0A4FBE6
:1019E000029804994FF48062059202F09DFB009BDF
:1019F0000298049A0221019102F058FC009B02987F
:101A0000049A0021039102F0B5FC01990298049A0E
:101A1000059B02F04BFC02980399049A059B02F087
:101A2000A9FC06B080BD000080B582B043F600007E
:101A3000C4F20100019008F029F8019800210091FA
:101A400008F012F90099019808F0EAF80099019855
:101A500008F0C2F801984FF4E13107F0A7FF0198B0
:101A6000042108F0CDF80198082108F0EDF801985C
:101A700008F036F80198072108F06CF8FFF7A4FF8A
:101A800002B080BD80B582B00190019840F604118B
:101A9000C2F200010091096800EB812001F08AFA8E
:101AA000009A40F6B020C2F2000000680199126866
:101AB00001EB82214FF4806201F04EF80099086832
:101AC0000130086040F60812C2F20002106800F50A
:101AD000806010600198096800EB81214CF246009B
:101AE000C0F6000008F0DAF9012002B080BD000065
:101AF00080B58AB008900791069200200590049066
:101B00000390079818B1FFE7069820B9FFE7002077
:101B10008DF8270073E040F6AC20C2F200000068A8
:101B200006990844B0F5806F2ED8FFE740F6B02044
:101B3000C2F20000006840F6AC21C2F2000102913E
:101B4000096808440799069AFEF720FB0298069A4E
:101B50000168114401600068B0F5806F13D1FFE7A0
:101B60000898FFF78FFF40F6B020C2F2000000682F
:101B70004FF48061FEF723FB40F6AC21C2F2000176
:101B800000200860FFE736E040F6B020C2F2000017
:101B90000090006840F6AC21C2F2000101910A6891
:101BA00010440799C2F58062FEF7F0FA01980068C8
:101BB000C0F5806005900898FFF764FF0098006802
:101BC0004FF48061FEF7FBFA0098019900220A6049
:101BD000069A059BD21A049200680968084407997E
:101BE000059A1144049AFEF7D1FA0199049A0868FB
:101BF00010440860FFE701208DF82700FFE79DF8FB
:101C000027000AB080BD000080B586B00590002096
:101C10000490039040F6AC20C2F20000006808B9BE
:101C2000FFE796E007F0ECFA08B9FFE791E040F62D
:101C3000AC20C2F20000006800F007000390039897
:101C400058B3FFE740F6AC20C2F2000000680399E9
:101C5000401A0830B0F5806F01D9FFE779E0002025
:101C60000490FFE704980399C1F10801884213D258
:101C7000FFE740F6B020C2F20000016840F6AC2356
:101C8000C2F200031A68501C186000208854FFE755
:101C9000049801300490E5E7FFE740F6AC20C2F27B
:101CA00000000068E8B1FFE7059840F60411C2F2B1
:101CB00000010291096800EB812001F07BF9029A92
:101CC00040F6B020C2F2000000680599126801EBEE
:101CD000822140F6AC22C2F20002128800F03CFFE2
:101CE000FFE7059840F60411C2F20001096800EB15
:101CF000812040F6AC21C2F2000101910A688118EE
:101D00004CF22100C0F6000008F0C8F84CF2440084
:101D1000C0F6000008F0C2F80198036840F6081207
:101D2000C2F200021168194411600068B0F5806FBA
:101D30000ED1FFE740F60411C2F20001086801303D
:101D4000086040F6AC21C2F2000100200860FFE705
:101D5000FFE706B080BD000080B584B0039002911B
:101D60000398013001F0D2FA8DF807009DF80700C2
:101D7000C0EB4010FEF7E5FB41EC100B9FED141B90
:101D800053EC112B51EC100BFEF7DFFA41EC100B6A
:101D900051EC100BFEF7E6FB8DF806009DF80710DE
:101DA0009DF806204BF6F650C0F6000008F076F8D5
:101DB0009DF8060002F090F89DF8070040F21441EB
:101DC000C2F20001087104B080BD00BF00BF00BFB7
:101DD0007B14AE47E17A843F43F21001C4F2020162
:101DE0004FF0FF30086043F20001C4F202010860C6
:101DF00043F20401C4F202010020086043F214011E
:101E0000C4F2020141F6B750C0F2C140086043F28B
:101E10000801C4F2020101200860704781B00090FF
:101E200043F20801C4F20201086820F06000086073
:101E3000009A08681043086001B0704781B00090B4
:101E400043F20801C4F20201086820F0180008609B
:101E5000009A08681043086001B0704743F2080117
:101E6000C4F20201086820F080000860086840F0B1
:101E7000800008607047000080B582B047F20040E3
:101E8000C4F20000009000F05DF80098002101917C
:101E9000382200F03FF90098019900F0BFF800984F
:101EA000019900F09BF80098019900F007F902B041
:101EB00080BD000086B005908DF813100392ADF838
:101EC0000A309DF81300E8B9FFE70398019040B18C
:101ED000FFE70198012809D0FFE7019802280AD0FE
:101EE0000EE0BDF80A00059988600AE0BDF80A0016
:101EF0000599C86005E0BDF80A000599086100E091
:101F0000FFE71CE00398009040B1FFE7009801282C
:101F100009D0FFE7009802280AD00EE0BDF80A00B9
:101F2000059948610AE0BDF80A000599886105E055
:101F3000BDF80A000599C86100E0FFE7FFE706B0B9
:101F40007047000080B586B005900598049047F270
:101F50000041C4F20001884218D0FFE704984CF613
:101F60000041C4F20001884219D0FFE704984DF205
:101F70000001C4F2000188421AD0FFE704984DF234
:101F80000041C4F2000188421BD023E040F21D4012
:101F9000039004F0D7FE039804F0C0FE1BE040F26B
:101FA0001F40029004F0CEFE029804F0B7FE12E04B
:101FB00040F21A40019004F0C5FE019804F0AEFE14
:101FC00009E040F21B40009004F0BCFE009804F0D1
:101FD000A5FE00E0FFE706B080BD000082B00190E2
:101FE0008DF803109DF8030030B9FFE701990868E8
:101FF00040F00100086005E00199086840F4803075
:102000000860FFE702B0704780B54FF090400321B1
:102010000222402302F04AF980BD000082B0019004
:102020008DF803109DF8030030B9FFE701990868A7
:1020300040F00200086005E00199086840F40030B3
:102040000860FFE702B0704782B001908DF803107E
:102050009DF8030030B9FFE70199086820F00200FD
:10206000086005E00199086820F400300860FFE787
:1020700002B0704780B582B04CF60040C4F2000058
:102080000090FFF75FFF009800210191382200F0D7
:1020900041F80098019900F027F80098019A11463C
:1020A00000F098F800980199FFF7CEFF0098019989
:1020B000FFF794FFFFF7A8FF02B080BD82B0019048
:1020C0008DF803109DF8030030B9FFE701994868C7
:1020D00040F00100486005E00199486840F00200C6
:1020E0004860FFE702B0704782B001908DF803109E
:1020F0009DF8030030B9FFE70199086820F004005B
:10210000086005E00199086820F480200860FFE776
:1021100002B0704783B002908DF8071000929DF8CE
:10212000070060B9FFE70299086844F2380290435B
:102130000860009A02990868104308600EE002994E
:1021400008684FF6FF72CBF6C77210400860009A1D
:102150000299086840EA02400860FFE703B0704750
:1021600080B584B003A880ED000A00210191ADF88C
:102170000A1090ED000A9FED161A20EE010A10EEEB
:10218000100AFEF727FA41EC100B51EC100B9FEDF3
:102190000E0B53EC102BFEF74AF941EC100B51ECEF
:1021A000100BFEF7DFF9019AADF80A00BDF80A300E
:1021B0004CF60040C4F200001146FFF77BFE04B06D
:1021C00080BD00BF00BF00BF000000000000044051
:1021D0000000804583B002908DF8071000929DF8B2
:1021E000070058B9FFE70299086820F0C0000860AE
:1021F000009A02990868104308600BE00299086889
:1022000020F440000860009A0299086840EA024001
:102210000860FFE703B0704780B584B00390029177
:1022200000208DF80700039820B1FFE702980128ED
:1022300001D8FFE71BE0039801789DF807000843E9
:102240008DF807009DF80700122801D0FFE70EE087
:102250000398417840F2BC50C2F20000017001784E
:102260004BF62C70C0F6000007F018FEFFE704B034
:1022700080BD000080B582B001208DF8070040F2DB
:10228000BC50C2F200000078012840D1FFE740F6C0
:10229000A820C2F20000006844F6D351C1F26201E6
:1022A000A0FB01019DF8070040F29C52C2F200021F
:1022B00012681044B0EB911F14D3FFE740F29C501A
:1022C000C2F20000006840F6A821C2F200010968CD
:1022D00044F6D352C1F26202A1FB0221B0EB911F7E
:1022E00014D9FFE740F6A820C2F20000006844F6C7
:1022F000D351C1F26201A0FB0110800940F29C5150
:10230000C2F20001086007F0BDF9FFE7FFE702B085
:1023100080BD000080B582B00190009140F6281188
:10232000C2F2000100200874C8608860486008603C
:102330000098112803D3FFE710200090FFE70199D0
:10234000009A40F62810C2F200000130FDF71EFF8F
:1023500002B080BD80B584B08DF80F00029101926B
:102360009DF80F00EA2801D0FFE714E0029808B9B1
:10237000FFE710E00198112803D3FFE71020019038
:10238000FFE70298019A40F62811C2F200010131DC
:10239000FDF7FCFEFFE704B080BD000040F2A05056
:1023A000C2F20000006840B1FFE740F2A051C2F263
:1023B0000001086801380860FFE7704781B08DF8B8
:1023C00003009DF8030000EB80020821C4F2020123
:1023D00051F8220020F0010041F8220001B07047BE
:1023E00081B08DF803009DF8030000EB8002082106
:1023F000C4F2020151F8220040F0010041F822002D
:1024000001B0704781B08DF803009DF8030000EB28
:1024100080020821C4F2020151F8220040F020009D
:1024200041F8220001B0704781B08DF803009DF89B
:10243000030000EB80020821C4F2020151F82200DF
:1024400020F0010041F822009DF8030000EB80021B
:10245000002041F822009DF8031001EB81020C21BD
:10246000C4F2020141F822009DF8031001EB810241
:102470001021C4F2020141F822009DF8031001EB83
:1024800081021421C4F2020141F822009DF80300E8
:1024900081000F2000FA01F20421C4F20201086851
:1024A0001043086001B0704780B584B08DF80F000C
:1024B00002919DF80F00FFF781FF029800689DF8D8
:1024C0000F1001EB81021021C4F2020141F8220039
:1024D000029880689DF80F1001EB81021421C4F26C
:1024E000020141F822000298008A9DF80F1001EBCA
:1024F00081020C21C4F2020141F822009DF80F0074
:1025000000EB80000821C4F2020151F82000019084
:10251000019820F47C500190029A5068D368526967
:102520001843024301981043019001989DF80F2031
:1025300002EB820241F822000298007E01280ED1AF
:10254000FFE79DF80F0000EB80020821C4F20201B2
:1025500051F8220040F0400041F822000DE09DF8C3
:102560000F0000EB80020821C4F2020151F82200A2
:1025700020F0400041F82200FFE70298407E012849
:102580000ED1FFE79DF80F0000EB80020821C4F296
:10259000020151F8220040F0800041F822000DE0D5
:1025A0009DF80F0000EB80020821C4F2020151F8EF
:1025B000220020F0800041F82200FFE70298807E90
:1025C00070B9FFE79DF80F0000EB80020821C4F20C
:1025D000020151F8220020F0100041F822000DE025
:1025E0009DF80F0000EB80020821C4F2020151F8AF
:1025F000220040F0100041F82200FFE704B080BD47
:1026000080B584B0039002910398013000F07EFE03
:102610008DF807009DF80700C0EBC010FDF791FF93
:1026200041EC100B9FED141B53EC112B51EC100BD4
:10263000FDF78BFE41EC100B51EC100BFDF792FFF8
:10264000ADF804009DF80710BDF804204BF6E260D9
:10265000C0F6000007F022FCBDF8040001F0E4FB26
:102660009DF8070040F21441C2F20001C87104B0A5
:1026700080BD00BF00BF00BF7B14AE47E17A843F3E
:1026800084B003908DF80B108DF80A20039A40F265
:102690000041C4F20101086890430860039A40F2C7
:1026A0000441C4F20101086890430860039A40F2B3
:1026B0000841C4F20101086890430860039A40F29F
:1026C0000C41C4F201010868904308609DF80B00BA
:1026D0000146019120B1FFE70198012809D011E0DE
:1026E000039A40F20041C4F20101086810430860F7
:1026F00009E0039A40F20441C4F201010868104362
:10270000086000E0FFE79DF80A00014600910328F9
:1027100038D80099DFE801F002132435039A40F21B
:102720000841C4F20101086810430860039A40F2AE
:102730000C41C4F2010108689043086023E0039A49
:1027400040F20841C4F20101086890430860039A0E
:1027500040F20C41C4F2010108681043086012E025
:10276000039A40F20841C4F201010868104308606E
:10277000039A40F20C41C4F201010868104308605A
:1027800001E0FFE7FFE704B07047000081B0009070
:10279000009840F21441C4F20101086001B0704792
:1027A00084B0029040F21440C4F201000068029923
:1027B0000840019040F20040C4F201000068029914
:1027C00008400090019838B1FFE7009820B1FFE77A
:1027D00001208DF80F0003E000208DF80F00FFE7C7
:1027E0009DF80F0004B0704784B003900020029061
:1027F000019003996E2201FB02F100910290FFE724
:1028000002980099884211D2FFE700200190FFE76B
:102810000198472805D8FFE7FFE7019801300190AC
:10282000F6E7FFE7029801300290E9E704B070474D
:1028300083B002900020019000900190FFE7019882
:102840000299884211D2FFE700200090FFE700982C
:10285000062805D8FFE7FFE7009801300090F6E76B
:10286000FFE7019801300190E9E703B070470000ED
:1028700010B58AB0ADF822000791ADF81A20059383
:102880000020ADF81200ADF81000ADF80E0007986A
:1028900040B1FFE7BDF81A00012803DBFFE7059808
:1028A00018B9FFE700200990A2E0BDF81A0001382E
:1028B000ADF81000BDF822000799BDF8102031F8DE
:1028C0001210884208DAFFE70798BDF8101030F8B8
:1028D0001100ADF822000CE0BDF82200079909882C
:1028E000884205DDFFE707980088ADF82200FFE782
:1028F000FFE7FFE7BDF81200BDF81010884274DC56
:10290000FFE7BDF81200BDF8101008444008ADF80C
:102910000E000798BDF80E1030F81100BDF8221017
:10292000884214D1FFE70798BDF81A10BDF80E30A1
:10293000BDF82220DDF814E0EC46CCF804E0CCF839
:1029400000201A46FEF7FCFE0120099050E0BDF879
:1029500022000799BDF80E2031F81210884221DAC2
:10296000FFE7BDF80E000130ADF81200BDF812000F
:10297000BDF81010884214DDFFE70798BDF81A1063
:10298000BDF810305A1EBDF822C0059CEE46CEF8A8
:102990000440CEF800C092B2FEF7D2FE01200990AA
:1029A00026E020E0BDF80E000138ADF81000BDF8BB
:1029B0001000BDF81210884214DAFFE70798BDF83E
:1029C0001A10BDF812305A1EBDF822C0059CEE4602
:1029D000CEF80440CEF800C092B2FEF7B1FE01205E
:1029E000099005E0FFE7FFE784E700200990FFE793
:1029F00009980AB010BD000080B584B00020039093
:102A0000ADF80A00ADF808008DF807004FF6004158
:102A1000C0F607010391ADF80A00FFE7BDF80A0010
:102A2000FF281DDCFFE7039800788DF80700039866
:102A3000013003909DF80700FF2804D0FFE79DF8C0
:102A4000070030B9FFE7BDF808000130ADF8080015
:102A5000FFE7FFE7BDF80A000130ADF80A00DDE747
:102A6000BDF80800B0F5807F0DD1FFE740F21400FB
:102A7000C2F200004FF60041C0F607014FF4807229
:102A800000F06AF8FFE74FF60000C0F60700039079
:102A90000020ADF808008DF80700ADF80A00FFE748
:102AA000BDF80A00FF281DDCFFE7039800788DF8C9
:102AB00007000398013003909DF80700FF2804D019
:102AC000FFE79DF8070030B9FFE7BDF808000130C7
:102AD000ADF80800FFE7FFE7BDF80A000130ADF8E8
:102AE0000A00DDE7BDF80800B0F5807F0DD1FFE7F3
:102AF00040F21410C2F200004FF60001C0F60701C8
:102B00004FF4807200F028F8FFE704B080BD0000A9
:102B100085B004900391ADF80A200398019000203D
:102B2000ADF80200FFE7BDF80200BDF80A108842C8
:102B300010DAFFE7019800780499BDF80220885464
:102B4000019801300190FFE7BDF802000130ADF8B7
:102B50000200E8E705B0704780B58AB00990089197
:102B6000ADF81E2000200090039002900898059078
:102B7000342000F05BF800F02FFB0098ADF81C004B
:102B8000FFE7BDF81C00BDF81E10884248DAFFE7D9
:102B9000BDF81C0001304007D8BBFFE707208DF8C7
:102BA0000700FFE79DF90700002823D4FFE70299FB
:102BB0000398000240EA11600902029103909DF916
:102BC0000710BDF81C00013020F007000844083849
:102BD000ADF81A000998BDF81A10425C02980399E2
:102BE000104303910290FFE79DF8070001388DF82C
:102BF0000700D7E70598029A039B00F0DFF834201E
:102C000000F014F805980830059000200390029019
:102C1000FFE7FFE7BDF81C000130ADF81C00B0E78E
:102C200000F0DCF900200AB080BD000081B0009007
:102C3000009A42F20C01C4F20201086810430860D5
:102C400001B0704780B584B0039001208DF80B006F
:102C5000FFE700F025F88DF80B000398013803908A
:102C6000FFE79DF80B1000200129019006D1FFE736
:102C70000398002818BF01200190FFE70198C007C2
:102C80000028E6D1FFE79DF80B00012804D1FFE7FB
:102C900005208DF80B00FFE79DF80B0004B080BD08
:102CA00081B000208DF8030042F20C00C4F2020053
:102CB0000068C00720B1FFE701208DF803001BE08A
:102CC00042F20C00C4F202000068C006002804D5DD
:102CD000FFE704208DF803000DE042F20C00C4F27F
:102CE000020000684007002804D5FFE702208DF8A5
:102CF0000300FFE7FFE7FFE79DF8030001B070471F
:102D000080B584B0039001208DF80B00FFE700F040
:102D100025F88DF80B00039801380390FFE79DF824
:102D20000B1000200129019006D1FFE7039800282D
:102D300018BF01200190FFE70198C0070028E6D1E5
:102D4000FFE79DF80B00012804D1FFE705208DF86F
:102D50000B00FFE79DF80B0004B080BD81B00020A0
:102D60008DF8030042F24C00C4F202000068C00774
:102D700020B1FFE701208DF803001BE042F24C0078
:102D8000C4F202000068C006002804D5FFE7042052
:102D90008DF803000DE042F24C00C4F2020000681E
:102DA0004007002804D5FFE702208DF80300FFE765
:102DB000FFE7FFE79DF8030001B0704780B58CB0D6
:102DC0000A90099308920A98B0F1006F0CD9FFE7B6
:102DD0000A984FF2E071C1F6FF71098801F50031E0
:102DE000B0EB812F0DD3FFE70A9858B1FFE70A989F
:102DF0004FF2E071C1F6FF710988B0EB812F01D26B
:102E0000FFE703E006208DF82F00CEE00A984FF28E
:102E1000E071C1F6FF71098801F58021B0EB412F07
:102E20005FD2FFE742F21C00C4F202000088000AF1
:102E3000000600282AD5FFE74FF47020FFF702FFB5
:102E40008DF8170008980790099806909DF81700CC
:102E5000D8B9FFE742F21001C4F2020104910868F8
:102E600040F00100086007980A99086006980A99DE
:102E700048604FF47020FFF7E5FE04998DF81700C5
:102E8000086820F001000860FFE729E04FF4702097
:102E9000FFF736FF8DF817000898079009980690FD
:102EA0009DF81700D8B9FFE742F25001C4F20201C1
:102EB0000391086840F00100086007980A990860CB
:102EC00006980A9948604FF47020FFF719FF03999C
:102ED0008DF81700086820F001000860FFE7FFE7A1
:102EE0005EE042F21C00C4F202000088000A000604
:102EF00000282AD5FFE74FF47020FFF701FF8DF877
:102F0000170008980790099806909DF81700D8B9FF
:102F1000FFE742F25001C4F202010291086840F05A
:102F20000100086007980A99086006980A994860A5
:102F30004FF47020FFF7E4FE02998DF8170008683F
:102F400020F001000860FFE729E04FF47020FFF750
:102F500079FE8DF8170008980790099806909DF85B
:102F60001700D8B9FFE742F21001C4F20201019143
:102F7000086840F00100086007980A990860069800
:102F80000A9948604FF47020FFF75CFE01998DF8B4
:102F90001700086820F001000860FFE7FFE7FFE77F
:102FA0009DF817008DF82F00FFE79DF82F000CB05B
:102FB00080BD000080B582B0019000F00DF9342092
:102FC0000090FFF733FE019800F01AF80098FFF721
:102FD0002DFE00F003F802B080BD000042F21001A7
:102FE000C4F20201086840F08000086042F250011B
:102FF000C4F20201086840F08000086070470000D9
:1030000080B588B006900698B0F1006F0CD3FFE74A
:1030100006984FF2E071C1F6FF71098801F50031A1
:10302000B0EB812F04D9FFE706208DF81F00CEE01A
:1030300006984FF2E071C1F6FF71098801F5802111
:10304000B0EB412F5FD2FFE742F21C00C4F2020056
:103050000088000A000600282AD5FFE74FF47020F8
:10306000FFF7F0FD8DF817009DF81700F8B9FFE79E
:1030700042F21001C4F202010491086840F002001B
:103080000860069842F21402C4F202021060086856
:1030900040F0400008604FF47020FFF7D3FD049922
:1030A0008DF81700086820F002000860FFE729E0AB
:1030B0004FF47020FFF724FE8DF817009DF81700DD
:1030C000F8B9FFE742F25001C4F202010391086827
:1030D00040F002000860069842F25402C4F2020274
:1030E0001060086840F0400008604FF47020FFF75F
:1030F00007FE03998DF81700086820F002000860A9
:10310000FFE7FFE75EE042F21C00C4F20200008825
:10311000000A000600282AD5FFE74FF47020FFF7C9
:10312000EFFD8DF817009DF81700F8B9FFE742F2A0
:103130005001C4F202010291086840F002000860E8
:10314000069842F25402C4F202021060086840F08D
:10315000400008604FF47020FFF7D2FD02998DF80F
:103160001700086820F002000860FFE729E04FF42C
:103170007020FFF767FD8DF817009DF81700F8B96C
:10318000FFE742F21001C4F202010191086840F029
:1031900002000860069842F21402C4F202021060B3
:1031A000086840F0400008604FF47020FFF74AFDC7
:1031B00001998DF81700086820F002000860FFE709
:1031C000FFE7FFE79DF817008DF81F00FFE79DF868
:1031D0001F0008B080BD000042F21000C4F20200DF
:1031E0000068000600280FD5FFE742F20401C4F290
:1031F000020140F22310C4F26750086048F6AB1099
:10320000CCF6EF500860FFE742F25000C4F2020033
:103210000068000600280FD5FFE742F24401C4F21F
:10322000020140F22310C4F26750086048F6AB1068
:10323000CCF6EF500860FFE77047000080B582B021
:10324000019000919DF8041043F60000C4F20100C3
:1032500006F012FCFFE743F60000C4F2010040F262
:10326000077106F047FC08B9FFE7F4E7019802B0E0
:1032700080BD000080B584B08DF80F000020009064
:1032800002908DF807009DF80F100522FDF76EFFE4
:103290000220FEF779F900984FF4FA6102918DF857
:1032A0000700029800EBC000C0000290FFE7029800
:1032B00002280DD3FFE70420FDF7ECFE20B1FFE765
:1032C00000208DF8070003E0029801380290EEE735
:1032D0000298012804D1FFE701208DF80700FFE7DD
:1032E0000420FDF7CBFE0020FEF706F804B080BDF9
:1032F00081B00090009830B1FFE700990020C4F23F
:103300001C200860FFE701B07047000083B0019007
:103310000020ADF802008DF801008DF80000019842
:1033200020B9FFE70020ADF80A0014E0019800780A
:103330008DF80100019840788DF800009DF801108B
:103340009DF8000040EA0120ADF80200BDF802003F
:10335000ADF80A00FFE7BDF80A0003B070470000AF
:1033600084B00290002001908DF803008DF80200D7
:103370008DF801008DF80000029818B9FFE70020D1
:10338000039021E0029800788DF8030002984078BD
:103390008DF80200029880788DF801000298C078BC
:1033A0008DF800009DF8030000069DF8021040EA29
:1033B00001409DF8011040EA01209DF800100844EA
:1033C000019001980390FFE7039804B07047000054
:1033D00080B590B00DF13D00009040F6670103F01C
:1033E00097FD0099002002908DF83F00AC200790D7
:1033F0000322099202F0DCF80DF13A00019040F648
:103400002C0103F085FD0199029B0798099A8DF81C
:103410003C3002F0CDF80DF13700039040F62D015D
:1034200003F076FD029B03990798099A8DF83930CD
:1034300002F0BEF80DA8049040F6310103F068FDDB
:1034400004990798099A8DF8362002F0B1F80DF129
:103450003100059040F6680103F05AFD0599079880
:10346000099A8DF8332002F0A3F80DF12E00069092
:103470004FF4036103F04CFD06990798099A022363
:103480008DF8303002F094F80DF12B00089040F6E2
:10349000320103F03DFD07980899099A01238DF840
:1034A0002D3002F085F810B080BD000080B592B0DC
:1034B0000DF14500069042F2680103F029FD0699DE
:1034C00001208DF84700AC2007900322099202F0FA
:1034D0006FF80DF14200089042F25E0103F018FD12
:1034E00007980899099A00230A938DF8443002F04E
:1034F0005FF80A980F90FFE70F98042814D8FFE7A9
:103500000DF13900059042F26A0103F001FD0599C1
:1035100005208DF83B00AC20032202F049F8FFE7BC
:103520000F9801300F90E7E741F20040C0F6070026
:103530000C904FF48040ADF82E000020ADF8340020
:10354000FFE7BDF83400B0F5F84F22DAFFE7BDF829
:103550002E100DF13600049003F0DAFC04990C985B
:1035600000788DF83800AC20032202F021F80C9886
:1035700001300C90BDF82E000130ADF82E00022075
:10358000FFF756F9FFE7BDF834000130ADF834001D
:10359000D7E7032203928DF84720AC2001900DF16C
:1035A0004501029102F004F801980299039A02235E
:1035B0008DF8473001F0FCFF12B080BD0000000024
:1035C00080B58AB009900020ADF820000120069057
:1035D00000F0DEF90DF11D00049040F6320103F019
:1035E00097FC049906988DF81F00AC2005900322E3
:1035F00001F0DEFF4FF47A70FFF71AF90598069B89
:1036000040F6330107AA01F05DFE9DF81C00D8B911
:10361000FFE7AC20029040F634010DF123020123B4
:10362000039301F04FFE0298039B40F635010DF124
:10363000220201F047FE9DF822109DF8230040EA87
:103640000120ADF82000FFE7BDF82000FCF779FF6E
:1036500041EC100B9FED1A1B53EC112B51EC100B8E
:10366000FCF773FE41EC100B51EC100B9FED160BA9
:1036700053EC102BFCF7C2FD41EC100B51EC100B7E
:10368000FCF7BBFF09990860BDF8200040F290519B
:10369000C2F20001888009980068FCF79BFF41ECAA
:1036A000100BBDF820006946086053EC102B4BF658
:1036B0006970C0F6000006F0F1FB0AB080BD00BFE3
:1036C00055C1A8A44E40CB3FA69BC420B072D83FA2
:1036D00080B58AB009900020ADF820000120069046
:1036E00000F074F90DF11D00049040F6320103F072
:1036F0000FFC049906988DF81F00AC20059003225A
:1037000001F056FF4FF47A70FFF792F80598069B88
:1037100040F6330107AA01F0D5FD9DF81C00D8B989
:10372000FFE7AC20029040F634010DF123020123A3
:10373000039301F0C7FD0298039B40F635010DF19C
:10374000220201F0BFFD9DF822109DF8230040EAFF
:103750000120ADF82000FFE7BDF82000FCF7F1FEE6
:1037600041EC100B9FED1A1B53EC112B51EC100B7D
:10377000FCF7EBFD41EC100B51EC100B9FED160B21
:1037800053EC102BFCF73AFD41EC100B51EC100BF5
:10379000FCF733FF09990860BDF8200040F2905112
:1037A000C2F20001C88009980068FCF713FF41ECE1
:1037B000100BBDF820006946086053EC102B4BF647
:1037C0005070C0F6000006F069FB0AB080BD00BF73
:1037D000EC4E779E78CE363F8BE07F2BD9B1513FB0
:1037E00080B58AB009900020ADF81E000120059038
:1037F00000F07CFC0DF11B00039040F6320103F059
:1038000087FB039905988DF81D00AC2004900322D6
:1038100001F0CEFE4FF47A70FFF70AF80498059B8A
:1038200040F633010DF11A0201F04CFD9DF81A002B
:10383000D8B9FFE7AC20019040F634010DF1230226
:103840000123029301F03EFD0198029B40F63501F1
:103850000DF1220201F036FD9DF822109DF82300A3
:1038600040EA0120ADF81E00FFE7BDF81E00FCF79E
:1038700068FE41EC100B9FED1A1B53EC112B51EC21
:10388000100BFCF762FD41EC100B51EC100B9FED9F
:10389000160B53EC102BFCF7B1FC41EC100B51EC68
:1038A000100BFCF7AAFE09990860BDF81E0040F253
:1038B0009051C2F20001488009980068FCF78AFE26
:1038C00041EC100BBDF81E006946086053EC102B4C
:1038D0004BF63C70C0F6000006F0E0FA0AB080BD7E
:1038E000971B0C7558E1763FE5D5390664AF97BF55
:1038F00080B588B04FF090400190012103910022E3
:1039000005924FF48053029300F0D0FC0198029B83
:1039100005990322069200F02DFD039A059940F2C5
:103920000040C4F6000004900823079300F0BEFC9A
:1039300004980599069A079B00F01CFD08B080BD0D
:1039400080B582B040F29051C2F200010020009098
:10395000088148600860FFF7CBFF00F0CFF9012035
:10396000019000F0A7FBFFF7A1FD4FF47A70FEF77E
:103970003BFF019800F004FB00F052F8009800F0C3
:10398000FFFA019800F026FBFFF722FD02B080BD90
:1039900080B582B08DF8070001A84FF4036103F0F1
:1039A000B7FA9DF80700012804D1FFE701208DF840
:1039B000060003E002208DF80600FFE7AC2001A915
:1039C000032201F0F5FD02B080BD000080B584B097
:1039D0008DF80F0003A8019040F66E0103F098FAED
:1039E000019904208DF80E00AC20032201F0E0FDC7
:1039F0000DF109004FF4036103F08AFA9DF80F00FE
:103A0000012804D1FFE702208DF80B00FFE7AC206E
:103A10000DF10901032201F0CBFD04B080BD0000CF
:103A200080B5B0B075208DF8BE00002017908DF8DD
:103A3000BF00AC201A900DF1BE0102220E9201F0DF
:103A4000B7FD0DF1BB00019040F6180103F060FADC
:103A50000199179A1A988DF8BD2003221C9201F043
:103A6000A7FD2EA8029040F6270103F051FA029913
:103A70001A981C9A012319938DF8BA3001F098FD19
:103A80000DF1B500039040F6250103F041FA0399CA
:103A90001A981C9A98238DF8B73001F089FD0DF122
:103AA000B200049040F6260103F032FA0499199B03
:103AB0001A981C9A8DF8B43001F07AFD0DF1AF0020
:103AC000059040F64B0103F023FA0599199B1A98CB
:103AD0001C9A8DF8B13001F06BFD2BA806904FF4C5
:103AE000086103F015FA06991A981C9A16238DF8A6
:103AF000AE3001F05DFD0DF1A900079040F68301A5
:103B000003F006FA07991A981C9A04238DF8AB3033
:103B100001F04EFD0DF1A600089040F6930103F070
:103B2000F7F908991A981C9A44238DF8A83001F0E7
:103B30003FFD0DF1A300099040F6B30103F0E8F951
:103B40000999179B1A981C9A8DF8A53001F030FD41
:103B500028A80A9041F6150103F0DAF90A99179B93
:103B60001A981C9A8DF8A23001F022FD0DF19D00EB
:103B70000B9041F6470103F0CBF90B991A981C9A68
:103B800014238DF89F3001F013FD0DF19A000C9075
:103B900041F6480103F0BCF90C991A981C9A8DF86B
:103BA0009C2001F005FD0DF197000D9041F64B01B1
:103BB00003F0AEF90D991A981C9A28231D938DF8DD
:103BC000993001F0F5FC25A80F9041F66E0103F045
:103BD0009FF90E9B0F991A981C9A8DF8963001F058
:103BE000E7FC0DF19100109041F6780103F090F997
:103BF0001099199B1A981C9A8DF8933001F0D8FCF3
:103C00000DF18E00119041F67C0103F081F91199BC
:103C1000199B1A981C9A8DF8903001F0C9FC0DF18F
:103C20008B00129041F6810103F072F91299199BF1
:103C30001A981C9A8DF88D3001F0BAFC22A81390C6
:103C400041F6860103F064F91399199B1A981C9A9E
:103C50008DF88A3001F0ACFC0DF18500149042F231
:103C6000AB0103F055F914991A981C9A07238DF8A3
:103C7000873001F09DFC0DF18200159040F6620145
:103C800003F046F91599199B1A981C9A8DF88430FF
:103C900001F08EFC0DF17F00169040F6630103F0F9
:103CA00037F91699179B1A981C9A8DF8813001F0F4
:103CB0007FFC1FA8189040F6640103F029F9179BB8
:103CC00018991A981C9A8DF87E3001F071FC0DF14C
:103CD00079001B9040F6650103F01AF9199B1A98B8
:103CE0001B991C9A8DF87B3001F062FC642000F077
:103CF000DDF81D9800F098F830B080BD80B582B036
:103D00004FF0904000904FF48051019100F076FA0E
:103D10004FF47A7004F048F80098019900F076FAB0
:103D200002B080BD80B588B0ADF81E00BDF81E1091
:103D300007A803F0EDF80DF11900019040F62501F8
:103D400003F0E6F801999DF81D008DF81B00AC20EA
:103D500002900322049201F02BFC0DF11600039057
:103D600040F6260103F0D4F802980399049A9DF8CE
:103D70001C308DF8183001F01BFC08B080BD00002D
:103D800080B588B0ADF81E00BDF81E1007A803F07E
:103D9000BFF80DF11900019040F6920103F0B8F858
:103DA00001999DF81C008DF81B00AC2002900322A5
:103DB000049201F0FDFB0DF11600039040F6930113
:103DC00003F0A6F802980399049A9DF81D308DF827
:103DD000183001F0EDFB08B080BD000080B586B062
:103DE0008DF8170005A8009041F67F0103F090F8C8
:103DF000009900208DF81600AC2001900322039258
:103E000001F0D6FB0DF11100029041F6830103F0A1
:103E10007FF801980299039A9DF817308DF81330B6
:103E200001F0C6FB06B080BD80B584B0ADF80E00D1
:103E30000DF10B00019041F64B0103F069F8019977
:103E40009DF80E008DF80D00AC20032201F0B0FBB0
:103E500004B080BD80B582B08DF8070001A8009045
:103E600041F6480103F054F800999DF807008DF8D9
:103E70000600AC20032201F09BFB02B080BD0000D5
:103E800080B582B08DF8070001A8009041F6470187
:103E900003F03EF800999DF807008DF80600AC206D
:103EA000032201F085FB02B080BD000080B584B024
:103EB000ADF80E000DF10B00019041F6820103F008
:103EC00027F801999DF80E008DF80D00AC20032213
:103ED00001F06EFB04B080BD80B582B08DF80700A4
:103EE00001A800904FF4086103F012F800999DF8C2
:103EF00007008DF80600AC20032201F059FB02B048
:103F000080BD000080B58AB0ADF826000DF1230019
:103F1000019040F6A20102F0FBFF019900208DF80C
:103F20002500AC2003900322059201F041FBBDF86F
:103F300026100DF1210002F0EBFF0DF11E000290A2
:103F400040F6960102F0E4FF02990398059A9DF865
:103F500021308DF8203001F02BFB0DF11B00049077
:103F600040F6970102F0D4FF03980499059A9DF852
:103F700022308DF81D3001F01BFB0AB080BD00001F
:103F800080B584B08DF80F009DF80F0001280FD187
:103F9000FFE703A8019040F65E0102F0B9FF019926
:103FA00001208DF80E00AC20032201F001FB0FE090
:103FB0000DF10900009040F65E0102F0A9FF0099A2
:103FC00000208DF80B00AC20032201F0F1FAFFE78E
:103FD00004B080BD80B58AB08DF8270009A84EF2E4
:103FE000013102F095FF0DF121004EF2023102F095
:103FF0008FFF0DF11E004EF2033102F089FF0DF12B
:104000001B004FF4634102F083FF9DF82700012855
:1040100027D1FFE700208DF82600AC20049009A9E5
:104020000322059201F0C4FA0498059A10218DF834
:1040300023100DF1210101F0BBFA0498059A01212A
:1040400003918DF820100DF11E0101F0B1FA0399D2
:104050000498059A8DF81D100DF11B0101F0A8FAC6
:1040600026E0002000908DF82600AC20019009A9E0
:104070000322029201F09CFA0198029A10218DF815
:1040800023100DF1210101F093FA00990198029A91
:104090008DF820100DF11E0101F08AFA0198029AA4
:1040A00001218DF81D100DF11B0101F081FAFFE7D0
:1040B0000AB080BD80B582B08DF807009DF807007A
:1040C000012808D1FFE740F20040C4F600000821B3
:1040D00000F09CF807E040F20040C4F60000082120
:1040E00000F08CF8FFE702B080BD000080B582B020
:1040F0008DF8070001A84FF4036102F009FF9DF855
:104100000700012804D1FFE706208DF8060003E030
:1041100002208DF80600FFE7AC2001A9032201F080
:1041200047FA02B080BD000086B00590049103926A
:104130000598006A01900598406A00900020ADF84B
:104140000A00FFE7BDF80A00072821D8FFE7BDF8FD
:104150000A100398C840C00798B1FFE7BDF80A00ED
:1041600081000F2000FA01F1019888430190049822
:10417000BDF80A10890000FA01F101980843019086
:10418000FFE7FFE7BDF80A000130ADF80A00D9E704
:104190000820ADF80A00FFE7BDF80A000F2825D86F
:1041A000FFE7BDF80A100398C840C007B8B1FFE7A1
:1041B000BDF80A006FF01F0101EB80020F2000FA2A
:1041C00002F20098904300900498BDF80A2001EB99
:1041D000820100FA01F1009808430090FFE7FFE731
:1041E000BDF80A000130ADF80A00D5E7019805993D
:1041F000086200980599486206B0704782B0019045
:10420000009100980199886202B0704782B00190D5
:10421000009100980199886102B0704783B00190C5
:104220000091019800690099084204D0FFE701203D
:104230008DF80B0003E000208DF80B00FFE79DF8E0
:104240000B0003B07047000080B586B040F200401C
:10425000C4F600000290012103914FF480620092A5
:10426000FFF762FF029803994FF400620592FFF78F
:104270005BFF009B0298039A0221019100F016F85F
:10428000009B029803990322049200F073F80199AD
:104290000298039A059B00F009F802980399049A82
:1042A000059B00F067F806B080BD000087B006905F
:1042B0000591049203930698006801900698C068DF
:1042C00000900020ADF80A00FFE7BDF80A000F28B3
:1042D00032D8FFE7BDF80A100398C840C00720B3E2
:1042E000FFE7BDF80A004100032000FA01F201993E
:1042F000914301910599BDF80A20520001FA02F29A
:10430000019911430191BDF80A10490000FA01F129
:104310000098884300900498BDF80A10490000FAFC
:1043200001F1009808430090FFE7FFE7BDF80A009D
:104330000130ADF80A00C8E70198069908600098B6
:104340000699C86007B0704783B00190009101984A
:1043500040690099084204D0FFE701208DF80B0066
:1043600003E000208DF80B00FFE79DF80B0003B081
:104370007047000086B005908DF8131003920293E9
:104380009DF81300012806D1FFE7029A05994868B5
:104390001043486005E0029A0599486890434860D8
:1043A000FFE70598806800900020ADF80600FFE761
:1043B000BDF806000F2821D8FFE7BDF806100298C7
:1043C000C840C00798B1FFE7BDF8060041000320D0
:1043D00000FA01F10098884300900398BDF8061098
:1043E000490000FA01F1009808430090FFE7FFE759
:1043F000BDF806000130ADF80600D9E70098059930
:10440000886006B07047000080B588B040F2004078
:10441000C4F6000004900421019140220292FFF7AB
:1044200083FE0199049880220792FFF77DFE029B8C
:1044300004980221039101220592FFF737FF029BA6
:104440000498059903220692FFF794FF03990498B4
:10445000059A079BFFF72AFF04980599069A079B80
:10446000FFF788FF08B080BD83B0029001910092F1
:1044700001986FF39F2001900098019908430299D9
:1044800088600299886840F40040886003B07047F3
:1044900081B000900099486820F00070486001B039
:1044A0007047000080B58AB045F66501C0F600018E
:1044B000CE20009000F02CFB009845F63101C0F6AC
:1044C000000100F0E3FA46F22531C0F60001049144
:1044D000A020019000F01CFB019846F20951C0F6A3
:1044E0000001069100F0D2FA0499A220029000F097
:1044F0000FFB0298069900F0C9FA0499B0200390C6
:1045000000F006FB0398069900F0C0FA0499B22067
:10451000059000F0FDFA0598069900F0B7FA46F20A
:104520000561C0F60001C22000F0B0FA49F2252171
:10453000C0F60001082001F02DFA49F2E531C0F67D
:1045400000010C2001F026FA49F6ED01C0F6000149
:104550000B2001F0DBF941F29961C0F60001072060
:1045600001F018FA47F69921C0F600010D2001F07C
:1045700011FA49F69151C0F600010F2001F00AFA34
:1045800045F68931C0F60001102001F0BFF949F667
:104590009141C0F60001092001F0FCF942F2192115
:1045A000C0F60001122001F0F5F944F60151C0F601
:1045B0000001132001F0EEF944F6D951C0F60001D4
:1045C000142001F0E7F947F62931C0F60001152063
:1045D00001F0E0F942F20161C0F60001162001F09D
:1045E000D9F941F65951C0F60001172001F0D2F96E
:1045F00049F28111C0F60001182001F0CBF946F60E
:104600009151C0F60001192001F0C4F946F69161FC
:10461000C0F600011A2001F0BDF946F61161C0F69E
:1046200000011B2001F0B6F949F6E101C0F60001D6
:104630001D2001F0AFF948F65951C0F60001F020F5
:10464000089001F0A7F948F25D31C0F600010220A0
:1046500001F05CF948F24151C0F6000100200790DA
:1046600001F098F9079848F2E941C0F6000101F01D
:104670004DF948F2FD31C0F60001042001F08AF93D
:1046800048F63D11C0F600010A2001F03FF948F25A
:10469000C531C0F60001012001F07CF948F27541F6
:1046A000C0F60001052001F075F946F2F941C0F6A7
:1046B00000011C2001F06EF9089848F6F941C0F697
:1046C000000101F023F948F69D11C0F60001EE202B
:1046D00001F060F948F64541C0F60001ED2001F017
:1046E00059F948F6B931C0F60001EC20099001F003
:1046F00051F9099848F62931C0F6000101F006F990
:1047000042F25531C0F60001EA2001F0FFF80AB08C
:1047100080BD000080B582B000200190FFF774FEDC
:10472000FFF792FD05F020FB02F0FCFF00F06EFDAC
:1047300040F60000C2F20000F021FBF740FD02B09D
:1047400080BD000081B000900098406AC0B201B006
:104750007047000082B0019000919DF8000001991F
:10476000886202B07047000081B00090009908682C
:1047700020F00100086001B07047000081B0009097
:104780000099086840F00100086001B0704700001F
:1047900083B001900091019880690099084204D08B
:1047A000FFE701208DF80B0003E000208DF80B00DF
:1047B000FFE79DF80B0003B07047000040F6D720DC
:1047C000C2F200000078704782B001900091009A18
:1047D000019908689043086002B0704782B0019068
:1047E0000091009A019908681043086002B0704770
:1047F00082B0019000910098C0F30441012000FABA
:1048000001F20199C8691043C86102B07047000005
:1048100085B0039002910020019000900398BDF8AC
:10482000081089094058029901F01F02012101FA7C
:1048300002F2104001900398029A920D8058029A59
:10484000C2F30442914008400090019838B1FFE75C
:10485000009820B1FFE701208DF8130003E000204D
:104860008DF81300FFE79DF8130005B070470000B6
:1048700083B00290019100920299486840F2FF32A1
:1048800090434860019A0299486810434860029931
:10489000486820F480604860009A02994868104394
:1048A000486003B07047000082B0019040F2C050F1
:1048B000C2F20000406800900098400886280DD899
:1048C000FFE70198009A511C009140F2C051C2F2DA
:1048D00000010A44107600984860FFE702B0704774
:1048E00083B00290019100920299086920F47F4000
:1048F00008610299086920F0FF0008610198000230
:1049000080B201909DF8000000900198009940EA63
:104910000102029908691043086103B07047000062
:1049200080B540F2C050C2F200002421FBF747FCE2
:1049300080BD000081B00090009940F2C050C2F2EA
:104940000000086001B0704783B040F2C050C2F26E
:1049500000004168019100218DF803104068B0F516
:10496000807F11D8FFE7019840F2C051C2F20001E8
:104970000844007E8DF803004868013048609DF8C7
:1049800003008DF80B0003E000208DF80B00FFE71B
:104990009DF80B0003B0704781B0009000988069CB
:1049A000C0F3464001B0704783B00290019100927D
:1049B000019800F0FE000190019A0299C868104326
:1049C000C8600299C86820F4E060C860009A029943
:1049D000C86840EA0220C8600299C86840F40040F4
:1049E000C86003B07047000080B540F2E450C2F2E6
:1049F00000004FF49471FBF7E2FB80BD82B00190A0
:104A000040F2E450C2F20000406800900098400874
:104A100086280CD8FFE70198009A40F2E451C2F2D0
:104A200000010A441076486801304860FFE702B090
:104A30007047000080B584B040F2E450C2F200003C
:104A400040680390039804281ED8FFE740F2E45022
:104A5000C2F200000021029140F8101F0190017184
:104A6000039A00F108010091FBF790FB0098019A6E
:104A7000039902F8081C4FF48771FBF7A0FB01991A
:104A8000029841F80C0CFFE704B080BD83B002909F
:104A90000191002000900090FFE7009840F6E0119F
:104AA000C2F200010968884211D2FFE70298009A19
:104AB00040F64011C2F2000151F83210884201D193
:104AC000FFE722E0FFE7009801300090E5E740F6BD
:104AD000E010C2F200000068132815D8FFE7019823
:104AE00040F6E011C2F200010B6840F64012C2F23B
:104AF000000202EBC303586002980B6842F83300CF
:104B0000086801300860FFE7FFE703B07047000066
:104B100083B002900191002000900090FFE7009880
:104B200040F68821C2F200010968884211D2FFE7ED
:104B30000298009A40F6E811C2F2000151F83210D2
:104B4000884201D1FFE721E0FFE7009801300090A3
:104B5000E5E740F68820C2F200000068132815D867
:104B6000FFE7019840F68821C2F200010B6840F689
:104B7000E812C2F2000202EBC303586002980B680D
:104B800042F83300086801300860FFE703B070475F
:104B900081B00090009940F2E450C2F20000086039
:104BA00001B0704783B040F2E450C2F200004168A7
:104BB000019100218DF803104068B0F5807F11D875
:104BC000FFE7019840F2E451C2F200010844007E80
:104BD0008DF803004868013048609DF803008DF8A7
:104BE0000B0003E000208DF80B00FFE79DF80B00A1
:104BF00003B0704781B08DF803009DF8030040F2C8
:104C0000E451C2F20001087001B0704781B0009019
:104C1000009840F2E451C2F20001C86001B0704750
:104C200040F2E450C2F200000078704780B502F014
:104C3000ABFD80BD81B000900099486840F4005001
:104C4000486001B07047000081B00090009948684A
:104C500040F48040486001B07047000084B0039089
:104C60000291019200930399086920F07040086155
:104C70000399086920F4700008610399086920F419
:104C80007020086102980007029001994FF47000AB
:104C900000EA0150019000994FF4702000EA0140B1
:104CA0000090029801990843009940EA0102039993
:104CB00008691043086104B07047000082B0019099
:104CC00000910199486820F47F004860009A01999A
:104CD000486840EA0240486002B0704740F6D72179
:104CE000C2F20001012008707047000040F6D72191
:104CF000C2F20001002008707047000000000000B0
:104D000080B586B00590049105980130FEF7FEFA53
:104D10008DF80F009DF80F0000EB80000001FBF7FD
:104D200010FC41EC100B9FED261B53EC112B51ECAA
:104D3000100BFBF70AFB41EC100B51EC100B9FED35
:104D4000220B53EC102BFBF759FA41EC100B51ECF2
:104D5000100BFBF752FC02909DF80F000090029898
:104D6000FBF738FC0A46009942EC100B53EC102B71
:104D70004BF67750C0F6000005F090F80298FBF76C
:104D800029FC41EC100B9FED121B53EC112B51EC45
:104D9000100BFBF74CFB41EC100B51EC100BFBF72D
:104DA000E1FBADF80600BDF80600FEF7BBFF9DF87D
:104DB0000F0040F21441C2F20001087006B080BD3D
:104DC0007B14AE47E17A843F0000000000004440BD
:104DD000AAF1D24D6210C83F80B584B00390029111
:104DE00003980130FEF792FA8DF807009DF807004E
:104DF0004FF4967100FB01F0FBF7A3FB41EC100BA5
:104E000051EC100B9FED180B53EC102BFBF79DFA98
:104E100041EC100B51EC100B9FED150B53EC102BCC
:104E2000FBF7ECF941EC100B51EC100BFBF79AFB84
:104E3000ADF804009DF80710BDF804204BF64C6057
:104E4000C0F6000005F02AF8BDF80400FEF798FF50
:104E50009DF8070040F21441C2F20001C87004B08E
:104E600080BD00BF00BF00BF7B14AE47E17A843F26
:104E7000000000000000794080B582B00020019061
:104E80004BF6BA70C0F6000005F008F801F0B4FE69
:104E900002F0AEFFFCF7C8FDFFF73CFC02F090FE0D
:104EA000FDF7E8F8FCF7A4FA04F050F9FCF7E4FF8A
:104EB000FFF7F8FAFDF7A0FD03F04CF9FEF740FD0F
:104EC0004BF6AD70C0F6000004F0E8FF02F072F996
:104ED00002F0B8F800F020FF4BF69D70C0F600001D
:104EE00004F0DCFF03F022FDFFE7FFF79FFE012047
:104EF000FDF79EFC40F69020C2F20000006844F6E8
:104F0000D351C1F26201A0FB010140F6D820C2F2E8
:104F100000000068C0EB9110012814D8FFE740F6AC
:104F2000D820C2F20000006840F69021C2F20001D1
:104F3000096844F6D352C1F26202A1FB0221B0EB30
:104F4000911F18D9FFE740F69020C2F200000068D8
:104F500044F6D351C1F26201A0FB0110800940F672
:104F6000D821C2F2000108604BF6C870C0F60000FC
:104F700004F094FFFFE703F033FBFDF77BF9B4E7A0
:104F800080B54CF20000C4F200000721C0F20861B5
:104F9000FFF73EFC50B1FFE74CF20000C4F2000006
:104FA0000721C0F20861FFF723FCFFE74CF2000085
:104FB000C4F200000721C0F20961FFF729FC50B1DB
:104FC000FFE74CF20000C4F200000721C0F20961C3
:104FD000FFF70EFCFFE74CF20000C4F200000721CF
:104FE000C0F20A61FFF714FC50B1FFE74CF2000079
:104FF000C4F200000721C0F20A61FFF7F9FBFFE7E6
:105000004CF20000C4F200000721C0F20B61FFF770
:10501000FFFB50B1FFE74CF20000C4F20000072193
:10502000C0F20B61FFF7E4FBFFE74CF20000C4F2B3
:1050300000000721C0F20C61FFF7EAFB50B1FFE767
:105040004CF20000C4F200000721C0F20C61FFF72F
:10505000CFFBFFE74CF20000C4F200000721C0F2D2
:105060000D61FFF7D5FB50B1FFE74CF20000C4F231
:1050700000000721C0F20D61FFF7BAFBFFE74CF219
:105080000000C4F20000E621FFF79EFB80BD000097
:1050900080B584B000208DF80F0045F60000C4F202
:1050A00000000221C0F20261FFF7B2FB90B3FFE7FC
:1050B00045F60000C4F2000001902021FFF78EFBAE
:1050C00001984021FFF78AFB0198FFF73BFB8DF821
:1050D0000F0002A8FFF72EFC029880B1FFE70298AC
:1050E000007858B9FFE70299012008700299002062
:1050F0000862C861886102994860FFE7FFE79DF890
:105100000F00FFF7D1FB40F22841C2F2000100205E
:10511000086079E045F60000C4F200000121C0F209
:105120000161FFF775FB98B1FFE7FFF70DFC8DF804
:105130000F009DF80F1045F60000C4F20000FFF7C5
:1051400009FB40F22841C2F20001042008605AE045
:1051500045F60000C4F200000621C0F20661FFF728
:1051600057FB98B3FFE702A8FFF7E4FB40F22840A3
:10517000C2F20000006838B9FFE745F60000C4F24B
:105180000000FFF761FDFFE740F22840C2F2000097
:10519000006804280CD1FFE702980078022807D1A4
:1051A000FFE745F60000C4F20000FFF74DFDFFE702
:1051B00040F22841C2F200010120086045F60000DB
:1051C000C4F200004021FFF7FFFA1BE045F60000A3
:1051D000C4F200000521C0F20561FFF719FB80B1A0
:1051E000FFE745F60000C4F200000521C0F20561AA
:1051F000FFF7FEFA40F22841C2F2000103200860E6
:10520000FFE7FFE7FFE7FFE704B080BD80B582B0AE
:10521000FFF786FB45F60000C4F200000190042170
:1052200001F020FD01980922002300931946FFF7A1
:1052300015FD01983921BB22FFF752FB009A019816
:1052400045F61803C4F20003196841F00101196022
:105250008221FFF709F90198FFF71AF90198FFF782
:105260008DFA00991820032200F0D8FB0099222023
:10527000022200F0D3FB0198E221FFF7AFFA019878
:10528000AC21FFF7ABFA02B080BD000080B588B05A
:1052900007908DF81B100592049300200390029054
:1052A000019000900798019001208DF800009DF872
:1052B0001B008DF808000599049A684600F022F852
:1052C00008B080BD80B58AB00990ADF82210079271
:1052D00006930020059004900390029002A801908C
:1052E00008300999039102218DF80810BDF82210A9
:1052F00001F00EFE01980799069A00F003F80AB033
:1053000080BD000080B58CB00B900A9109920020FE
:10531000089007908DF81B0005900A9838B1FFE7B8
:10532000099820B1FFE709980D2801D3FFE73CE178
:105330000B9808B9FFE738E14FF4FA6007900020B6
:105340008DF81B00079800EBC000C0000790FFE736
:105350000798022810D3FFE740F22840C2F200006D
:105360000068032804D1FFE700208DF81B0003E04C
:10537000079801380790EBE70798012804D1FFE769
:1053800001208DF81B00FFE79DF81B00012801D1CB
:10539000FFE70AE140F22841C2F20001062008605E
:1053A000FFF7BEFA05A8FFF7C5FA059808B9FFE7A9
:1053B000FBE045F60000C4F200000390EE21FFF789
:1053C0000DFA039845F61802C4F20002116841F084
:1053D000010111600B99496800220492FFF748FA15
:1053E00003980B990978FFF769FC04984FF4FA6168
:1053F00007918DF81B00079800EBC000C0000790D4
:10540000FFE70798022812D3FFE745F60000C4F231
:1054100000004FF40041FFF7BBF920B9FFE700207F
:105420008DF81B0003E0079801380790E9E707981B
:10543000012804D1FFE701208DF81B00FFE79DF84C
:105440001B00012811D1FFE740F22841C2F2000100
:105450000320086045F60000C4F200000290FFF748
:1054600083F90298FFF78AF99FE00599DDF82CC0CF
:10547000DCF80000DCF80420DCF80830DCF80CC0B4
:10548000C1F814C00B61CA608860059A02F1180067
:1054900002F11001127AFAF779FE45F60000C4F223
:1054A0000000FFF7C7FB4FF4FA60079000208DF86B
:1054B0001B00079800EBC000C0000790FFE70798AB
:1054C000022811D3FFE745F60000C4F20000402196
:1054D000FFF75EF920B1FFE700208DF81B0003E025
:1054E000079801380790EAE70798012804D1FFE7F9
:1054F00001208DF81B00FFE79DF81B00012807D154
:10550000FFE740F22841C2F20001032008604CE0AE
:105510000B98416845F60000C4F2000001904FF47A
:105520008062FFF7A5F901980999FFF7C7FB019879
:10553000FFF780FB4FF4FA60079000208DF81B0006
:10554000079800EBC000C0000790FFE7079802280B
:1055500010D3FFE740F22840C2F2000000680328A1
:1055600004D1FFE700208DF81B0003E00798013805
:105570000790EBE70798012804D1FFE701208DF899
:105580001B00FFE79DF81B00012807D1FFE740F251
:105590002841C2F200010320086006E00A9805993C
:1055A0001831099AFAF7F2FDFFE70CB080BD000050
:1055B00080B58AB0099008910792002006908DF876
:1055C00017000490089840B1FFE70798022804D319
:1055D000FFE707980C2801D3FFE7DCE04FF4FA60FF
:1055E000069000208DF81700069800EBC000C00060
:1055F0000690FFE70698022810D3FFE740F2284004
:10560000C2F200000068032804D1FFE700208DF8F3
:10561000170003E0069801380690EBE7069801288A
:1056200004D1FFE701208DF81700FFE79DF8170070
:10563000012801D1FFE7AEE040F22841C2F20001AB
:105640000620086045F61801C4F20001086840F021
:1056500001000860099945F60000C4F200000290BC
:1056600000220392FFF704F902980799FFF726FB3F
:105670000298E621FFF7B2F803984FF4FA61069119
:105680008DF81700069800EBC000C0000690FFE7F9
:105690000698022812D3FFE745F60000C4F2000086
:1056A0004FF40041FFF774F820B9FFE700208DF8B0
:1056B000170003E0069801380690E9E706980128EC
:1056C00004D1FFE701208DF81700FFE79DF81700D0
:1056D000012811D1FFE740F22841C2F20001032066
:1056E000086045F60000C4F200000190FFF73CF8A6
:1056F0000198FFF743F84EE0FFF712F904A8FFF70F
:1057000019F9049902200870049818300899079A2A
:10571000FAF73CFD45F60000C4F20000FFF78AFAF4
:105720004FF4FA60069000208DF81700069800EB01
:10573000C000C0000690FFE70698022810D3FFE7DC
:1057400040F22840C2F200000068032804D1FFE7BD
:1057500000208DF8170003E0069801380690EBE76B
:105760000698012804D1FFE701208DF81700FFE714
:105770009DF8170001280ED1FFE745F60000C4F29E
:105780000000E621FFF720F840F22841C2F20001B4
:1057900003200860FFE70AB080BD000080B586B036
:1057A00005908DF813100392029300200190059844
:1057B000CE2801D0FFE738E0039808B9FFE734E0CE
:1057C00000200190FFE7019840F2FC71C2F2000155
:1057D0000968884212D2FFE79DF81300019A40F24F
:1057E0000C71C2F2000111F83210884201D1FFE7BA
:1057F00004E0FFE7019801300190E4E7019840F2EE
:10580000FC71C2F20001096888420ED2FFE70199DB
:1058100040F20C70C2F2000000EBC10043689DF83A
:1058200013000399029A9847FFE706B080BD000075
:1058300080B584B0039002910192039808B9FFE704
:105840000DE003980078012808D1FFE70399486824
:10585000097A029A019BFFF7A1FFFFE7FFE704B077
:1058600080BD000080B586B00590049103920020B1
:105870008DF80B0001900598CE2801D0FFE742E09B
:10588000049820B1FFE70398012801D8FFE73AE028
:10589000049801789DF80B0008438DF80B00002058
:1058A0000190FFE7019840F6F001C2F2000109689B
:1058B000884212D2FFE79DF80B00019A40F60001E2
:1058C000C2F2000111F83210884201D1FFE704E072
:1058D000FFE7019801300190E4E7019840F6F001FC
:1058E000C2F20001096888420CD2FFE7019940F634
:1058F0000000C2F2000000EBC10042680498039966
:105900009047FFE7FFE706B080BD000083B08DF849
:105910000B000191002000900090FFE7009840F2FA
:10592000FC71C2F200010968884212D2FFE79DF8BB
:105930000B00009A40F20C71C2F2000111F8321013
:10594000884201D1FFE723E0FFE700980130009093
:10595000E4E740F2FC70C2F2000000681D2816D88F
:10596000FFE7019840F2FC71C2F200010B6840F2BF
:105970000C72C2F2000202EBC30358609DF80B00E8
:105980000B6802F83300086801300860FFE7FFE7A2
:1059900003B0704783B08DF80B0001910020009098
:1059A0000090FFE7009840F6F001C2F2000109689C
:1059B000884212D2FFE79DF80B00009A40F60001E2
:1059C000C2F2000111F83210884201D1FFE723E052
:1059D000FFE7009801300090E4E740F6F000C2F2E3
:1059E000000000681D2816D8FFE7019840F6F00176
:1059F000C2F200010B6840F60002C2F2000202EBA4
:105A0000C30358609DF80B000B6802F83300086868
:105A100001300860FFE7FFE703B0704780B584B04E
:105A20008DF80F008DF80E108DF80D2000200290DB
:105A3000019000904EF60C50CEF20000006800F489
:105A4000E060B0F5E06F05D1FFE700200190042091
:105A500000904AE04EF60C50CEF20000006800F4D0
:105A6000E060B0F5C06F05D1FFE701200190032091
:105A7000009039E04EF60C50CEF20000006800F4C1
:105A8000E060B0F5A06F04D1FFE702200190009024
:105A900029E04EF60C50CEF20000006800F4E06001
:105AA000B0F5806F05D1FFE7032001900120009041
:105AB00018E04EF60C50CEF20000006800F4E060F2
:105AC000B0F5407F05D1FFE7042001900020009051
:105AD00007E04FF4A06000F037F80220019000903A
